{
  "contractName": "Vaccinations",
  "abi": [
    {
      "inputs": [
        {
          "internalType": "address",
          "name": "a1",
          "type": "address"
        },
        {
          "internalType": "address",
          "name": "a2",
          "type": "address"
        },
        {
          "internalType": "address",
          "name": "a3",
          "type": "address"
        }
      ],
      "stateMutability": "nonpayable",
      "type": "constructor"
    },
    {
      "inputs": [
        {
          "internalType": "uint256",
          "name": "",
          "type": "uint256"
        }
      ],
      "name": "authorities",
      "outputs": [
        {
          "internalType": "address",
          "name": "",
          "type": "address"
        }
      ],
      "stateMutability": "view",
      "type": "function",
      "constant": true
    },
    {
      "inputs": [
        {
          "internalType": "uint256",
          "name": "",
          "type": "uint256"
        }
      ],
      "name": "petitions",
      "outputs": [
        {
          "internalType": "address",
          "name": "petitioner",
          "type": "address"
        },
        {
          "internalType": "string",
          "name": "name",
          "type": "string"
        },
        {
          "internalType": "uint8",
          "name": "timeLapsed",
          "type": "uint8"
        },
        {
          "internalType": "uint8",
          "name": "votesReceived",
          "type": "uint8"
        },
        {
          "internalType": "bool",
          "name": "added",
          "type": "bool"
        }
      ],
      "stateMutability": "view",
      "type": "function",
      "constant": true
    },
    {
      "inputs": [
        {
          "internalType": "address",
          "name": "_petitioner",
          "type": "address"
        }
      ],
      "name": "vote",
      "outputs": [],
      "stateMutability": "nonpayable",
      "type": "function"
    },
    {
      "inputs": [
        {
          "internalType": "string",
          "name": "_name",
          "type": "string"
        }
      ],
      "name": "submitPetition",
      "outputs": [],
      "stateMutability": "nonpayable",
      "type": "function"
    },
    {
      "inputs": [],
      "name": "viewPetitions",
      "outputs": [
        {
          "components": [
            {
              "internalType": "address",
              "name": "petitioner",
              "type": "address"
            },
            {
              "internalType": "string",
              "name": "name",
              "type": "string"
            },
            {
              "internalType": "uint8",
              "name": "timeLapsed",
              "type": "uint8"
            },
            {
              "internalType": "uint8",
              "name": "votesReceived",
              "type": "uint8"
            },
            {
              "internalType": "address[]",
              "name": "voters",
              "type": "address[]"
            },
            {
              "internalType": "bool",
              "name": "added",
              "type": "bool"
            }
          ],
          "internalType": "struct Vaccinations.petition[]",
          "name": "",
          "type": "tuple[]"
        }
      ],
      "stateMutability": "view",
      "type": "function",
      "constant": true
    },
    {
      "inputs": [
        {
          "internalType": "address",
          "name": "petitioner",
          "type": "address"
        }
      ],
      "name": "removePetition",
      "outputs": [],
      "stateMutability": "nonpayable",
      "type": "function"
    },
    {
      "inputs": [
        {
          "internalType": "address",
          "name": "_voter",
          "type": "address"
        },
        {
          "internalType": "address[]",
          "name": "_voters",
          "type": "address[]"
        }
      ],
      "name": "checkIfVoted",
      "outputs": [
        {
          "internalType": "bool",
          "name": "",
          "type": "bool"
        }
      ],
      "stateMutability": "view",
      "type": "function",
      "constant": true
    },
    {
      "inputs": [
        {
          "internalType": "address",
          "name": "_vacc",
          "type": "address"
        }
      ],
      "name": "checkIfVaccinationAuthority",
      "outputs": [
        {
          "internalType": "bool",
          "name": "trust",
          "type": "bool"
        }
      ],
      "stateMutability": "view",
      "type": "function",
      "constant": true
    },
    {
      "inputs": [
        {
          "internalType": "string",
          "name": "_id",
          "type": "string"
        },
        {
          "internalType": "string",
          "name": "_name",
          "type": "string"
        },
        {
          "internalType": "bool",
          "name": "_gender",
          "type": "bool"
        },
        {
          "internalType": "string",
          "name": "_nationality",
          "type": "string"
        },
        {
          "internalType": "address",
          "name": "_user_address",
          "type": "address"
        }
      ],
      "name": "registerUser",
      "outputs": [],
      "stateMutability": "nonpayable",
      "type": "function"
    },
    {
      "inputs": [
        {
          "internalType": "string",
          "name": "user_id",
          "type": "string"
        },
        {
          "internalType": "string",
          "name": "_vacName",
          "type": "string"
        },
        {
          "internalType": "string",
          "name": "_batchID",
          "type": "string"
        },
        {
          "internalType": "string",
          "name": "location",
          "type": "string"
        },
        {
          "internalType": "string",
          "name": "date",
          "type": "string"
        }
      ],
      "name": "addVaccination",
      "outputs": [],
      "stateMutability": "nonpayable",
      "type": "function"
    },
    {
      "inputs": [
        {
          "internalType": "string",
          "name": "user_id",
          "type": "string"
        }
      ],
      "name": "userExists",
      "outputs": [
        {
          "internalType": "bool",
          "name": "",
          "type": "bool"
        }
      ],
      "stateMutability": "view",
      "type": "function",
      "constant": true
    },
    {
      "inputs": [
        {
          "internalType": "string",
          "name": "user_id",
          "type": "string"
        }
      ],
      "name": "calculateHash",
      "outputs": [
        {
          "internalType": "bytes32",
          "name": "",
          "type": "bytes32"
        }
      ],
      "stateMutability": "view",
      "type": "function",
      "constant": true
    },
    {
      "inputs": [
        {
          "internalType": "string",
          "name": "user_id",
          "type": "string"
        }
      ],
      "name": "getVaccinationRecord",
      "outputs": [
        {
          "components": [
            {
              "internalType": "string",
              "name": "user_id",
              "type": "string"
            },
            {
              "internalType": "address",
              "name": "user_address",
              "type": "address"
            },
            {
              "internalType": "string",
              "name": "nationality",
              "type": "string"
            },
            {
              "internalType": "string",
              "name": "name",
              "type": "string"
            },
            {
              "internalType": "bool",
              "name": "gender",
              "type": "bool"
            },
            {
              "internalType": "address",
              "name": "createdBy",
              "type": "address"
            },
            {
              "internalType": "bytes32",
              "name": "detailshash",
              "type": "bytes32"
            },
            {
              "components": [
                {
                  "internalType": "string",
                  "name": "name",
                  "type": "string"
                },
                {
                  "internalType": "string",
                  "name": "batch_id",
                  "type": "string"
                },
                {
                  "internalType": "address",
                  "name": "addedBy",
                  "type": "address"
                },
                {
                  "internalType": "string",
                  "name": "administrationDate",
                  "type": "string"
                },
                {
                  "internalType": "string",
                  "name": "location",
                  "type": "string"
                }
              ],
              "internalType": "struct Vaccinations.vaccine[]",
              "name": "vaccinations",
              "type": "tuple[]"
            }
          ],
          "internalType": "struct Vaccinations.vaccination_record",
          "name": "",
          "type": "tuple"
        }
      ],
      "stateMutability": "view",
      "type": "function",
      "constant": true
    },
    {
      "inputs": [
        {
          "internalType": "string",
          "name": "user_id",
          "type": "string"
        }
      ],
      "name": "getVaccinationHash",
      "outputs": [
        {
          "internalType": "bytes32",
          "name": "",
          "type": "bytes32"
        }
      ],
      "stateMutability": "view",
      "type": "function",
      "constant": true
    },
    {
      "inputs": [
        {
          "internalType": "string",
          "name": "user_id",
          "type": "string"
        }
      ],
      "name": "getVaccinationRecordPublic",
      "outputs": [
        {
          "internalType": "string",
          "name": "",
          "type": "string"
        }
      ],
      "stateMutability": "view",
      "type": "function",
      "constant": true
    },
    {
      "inputs": [],
      "name": "getVaccinationAuthorities",
      "outputs": [
        {
          "internalType": "address[]",
          "name": "",
          "type": "address[]"
        }
      ],
      "stateMutability": "view",
      "type": "function",
      "constant": true
    },
    {
      "inputs": [
        {
          "internalType": "address",
          "name": "_add",
          "type": "address"
        }
      ],
      "name": "getAuthorityName",
      "outputs": [
        {
          "internalType": "string",
          "name": "",
          "type": "string"
        }
      ],
      "stateMutability": "view",
      "type": "function",
      "constant": true
    },
    {
      "inputs": [
        {
          "internalType": "string",
          "name": "data",
          "type": "string"
        }
      ],
      "name": "getHashQR",
      "outputs": [
        {
          "internalType": "bytes32",
          "name": "",
          "type": "bytes32"
        }
      ],
      "stateMutability": "view",
      "type": "function",
      "constant": true
    }
  ],
  "bytecode": "0x60806040523480156200001157600080fd5b5060405162004d4638038062004d468339818101604052810190620000379190620004ff565b6001839080600181540180825580915050600190039060005260206000200160009091909190916101000a81548173ffffffffffffffffffffffffffffffffffffffff021916908373ffffffffffffffffffffffffffffffffffffffff1602179055506001829080600181540180825580915050600190039060005260206000200160009091909190916101000a81548173ffffffffffffffffffffffffffffffffffffffff021916908373ffffffffffffffffffffffffffffffffffffffff1602179055506001819080600181540180825580915050600190039060005260206000200160009091909190916101000a81548173ffffffffffffffffffffffffffffffffffffffff021916908373ffffffffffffffffffffffffffffffffffffffff1602179055506040518060400160405280600581526020017f4e414452410000000000000000000000000000000000000000000000000000008152506000806001600081548110620001d5577f4e487b7100000000000000000000000000000000000000000000000000000000600052603260045260246000fd5b9060005260206000200160009054906101000a900473ffffffffffffffffffffffffffffffffffffffff1673ffffffffffffffffffffffffffffffffffffffff1673ffffffffffffffffffffffffffffffffffffffff16815260200190815260200160002090805190602001906200024f92919062000438565b506040518060400160405280600481526020017f50494d530000000000000000000000000000000000000000000000000000000081525060008060018081548110620002c4577f4e487b7100000000000000000000000000000000000000000000000000000000600052603260045260246000fd5b9060005260206000200160009054906101000a900473ffffffffffffffffffffffffffffffffffffffff1673ffffffffffffffffffffffffffffffffffffffff1673ffffffffffffffffffffffffffffffffffffffff16815260200190815260200160002090805190602001906200033e92919062000438565b506040518060400160405280600481526020017f4e434f43000000000000000000000000000000000000000000000000000000008152506000806001600281548110620003b4577f4e487b7100000000000000000000000000000000000000000000000000000000600052603260045260246000fd5b9060005260206000200160009054906101000a900473ffffffffffffffffffffffffffffffffffffffff1673ffffffffffffffffffffffffffffffffffffffff1673ffffffffffffffffffffffffffffffffffffffff16815260200190815260200160002090805190602001906200042e92919062000438565b5050505062000608565b828054620004469062000589565b90600052602060002090601f0160209004810192826200046a5760008555620004b6565b82601f106200048557805160ff1916838001178555620004b6565b82800160010185558215620004b6579182015b82811115620004b557825182559160200191906001019062000498565b5b509050620004c59190620004c9565b5090565b5b80821115620004e4576000816000905550600101620004ca565b5090565b600081519050620004f981620005ee565b92915050565b6000806000606084860312156200051557600080fd5b60006200052586828701620004e8565b93505060206200053886828701620004e8565b92505060406200054b86828701620004e8565b9150509250925092565b6000620005628262000569565b9050919050565b600073ffffffffffffffffffffffffffffffffffffffff82169050919050565b60006002820490506001821680620005a257607f821691505b60208210811415620005b957620005b8620005bf565b5b50919050565b7f4e487b7100000000000000000000000000000000000000000000000000000000600052602260045260246000fd5b620005f98162000555565b81146200060557600080fd5b50565b61472e80620006186000396000f3fe608060405234801561001057600080fd5b50600436106101165760003560e01c80639e5d79b7116100a2578063c34a43ff11610071578063c34a43ff1461032f578063d29eab2b1461035f578063e41997241461037b578063e5e69caa14610397578063fddc968e146103c757610116565b80639e5d79b714610297578063a8cbcecd146102b3578063b2989f3b146102e3578063b7c89fc01461031357610116565b8063494503d4116100e9578063494503d4146101cd57806349f89b2e146101fd5780636dd7d8ea1461022d5780636e1ef2c914610249578063973378be1461027957610116565b8063010ca7541461011b5780631e8e47f11461014b5780633ad50ded146101695780633d9b9ada1461019d575b600080fd5b61013560048036038101906101309190613378565b6103f7565b6040516101429190614088565b60405180910390f35b6101536104c8565b6040516101609190614044565b60405180910390f35b610183600480360381019061017e91906135e4565b610556565b604051610194959493929190613fea565b60405180910390f35b6101b760048036038101906101b291906133f5565b61066b565b6040516101c491906140be565b60405180910390f35b6101e760048036038101906101e291906135e4565b610a30565b6040516101f49190613fcf565b60405180910390f35b610217600480360381019061021291906133f5565b610a6f565b60405161022491906140a3565b60405180910390f35b61024760048036038101906102429190613378565b610a9a565b005b610263600480360381019061025e91906133f5565b6113a5565b60405161027091906140a3565b60405180910390f35b6102816113d5565b60405161028e9190614066565b60405180910390f35b6102b160048036038101906102ac91906134f5565b6115ff565b005b6102cd60048036038101906102c891906133f5565b611831565b6040516102da91906140a3565b60405180910390f35b6102fd60048036038101906102f891906133f5565b611b08565b60405161030a9190614200565b60405180910390f35b61032d60048036038101906103289190613378565b612278565b005b610349600480360381019061034491906133a1565b6126c1565b6040516103569190614088565b60405180910390f35b610379600480360381019061037491906133f5565b61276b565b005b61039560048036038101906103909190613436565b612a4d565b005b6103b160048036038101906103ac9190613378565b612cc2565b6040516103be91906140be565b60405180910390f35b6103e160048036038101906103dc91906133f5565b612d92565b6040516103ee9190614088565b60405180910390f35b6000806000905060005b6001805490508110156104be5760018181548110610448577f4e487b7100000000000000000000000000000000000000000000000000000000600052603260045260246000fd5b9060005260206000200160009054906101000a900473ffffffffffffffffffffffffffffffffffffffff1673ffffffffffffffffffffffffffffffffffffffff168473ffffffffffffffffffffffffffffffffffffffff1614156104ab57600191505b80806104b69061459d565b915050610401565b5080915050919050565b6060600180548060200260200160405190810160405280929190818152602001828054801561054c57602002820191906000526020600020905b8160009054906101000a900473ffffffffffffffffffffffffffffffffffffffff1673ffffffffffffffffffffffffffffffffffffffff1681526020019060010190808311610502575b5050505050905090565b6002818154811061056657600080fd5b90600052602060002090600502016000915090508060000160009054906101000a900473ffffffffffffffffffffffffffffffffffffffff16908060010180546105af9061456b565b80601f01602080910402602001604051908101604052809291908181526020018280546105db9061456b565b80156106285780601f106105fd57610100808354040283529160200191610628565b820191906000526020600020905b81548152906001019060200180831161060b57829003601f168201915b5050505050908060020160009054906101000a900460ff16908060020160019054906101000a900460ff16908060040160009054906101000a900460ff16905085565b6060600060038360405161067f9190613f41565b9081526020016040518091039020600001805461069b9061456b565b80601f01602080910402602001604051908101604052809291908181526020018280546106c79061456b565b80156107145780601f106106e957610100808354040283529160200191610714565b820191906000526020600020905b8154815290600101906020018083116106f757829003601f168201915b50505050509050600081511415610760576040517f08c379a000000000000000000000000000000000000000000000000000000000815260040161075790614100565b60405180910390fd5b60006003846040516107729190613f41565b90815260200160405180910390206006018054905090506000604051806020016040528060008152509050600060405180602001604052806000815250905060008311156109bd576003866040516107ca9190613f41565b90815260200160405180910390206006016001846107e89190614496565b8154811061081f577f4e487b7100000000000000000000000000000000000000000000000000000000600052603260045260246000fd5b9060005260206000209060050201600001805461083b9061456b565b80601f01602080910402602001604051908101604052809291908181526020018280546108679061456b565b80156108b45780601f10610889576101008083540402835291602001916108b4565b820191906000526020600020905b81548152906001019060200180831161089757829003601f168201915b505050505091506003866040516108cb9190613f41565b90815260200160405180910390206006016001846108e99190614496565b81548110610920577f4e487b7100000000000000000000000000000000000000000000000000000000600052603260045260246000fd5b9060005260206000209060050201600301805461093c9061456b565b80601f01602080910402602001604051908101604052809291908181526020018280546109689061456b565b80156109b55780601f1061098a576101008083540402835291602001916109b5565b820191906000526020600020905b81548152906001019060200180831161099857829003601f168201915b505050505090505b856003876040516109ce9190613f41565b90815260200160405180910390206003016003886040516109ef9190613f41565b90815260200160405180910390206002018484604051602001610a16959493929190613f58565b604051602081830303815290604052945050505050919050565b60018181548110610a4057600080fd5b906000526020600020016000915054906101000a900473ffffffffffffffffffffffffffffffffffffffff1681565b6000600382604051610a819190613f41565b9081526020016040518091039020600501549050919050565b610aa3336103f7565b610ae2576040517f08c379a0000000000000000000000000000000000000000000000000000000008152600401610ad990614180565b60405180910390fd5b60005b600280549050811015610b8557600160028281548110610b2e577f4e487b7100000000000000000000000000000000000000000000000000000000600052603260045260246000fd5b906000526020600020906005020160020160008282829054906101000a900460ff16610b5a919061442e565b92506101000a81548160ff021916908360ff1602179055508080610b7d9061459d565b915050610ae5565b5060005b6002805490508110156113a1578173ffffffffffffffffffffffffffffffffffffffff1660028281548110610be7577f4e487b7100000000000000000000000000000000000000000000000000000000600052603260045260246000fd5b906000526020600020906005020160000160009054906101000a900473ffffffffffffffffffffffffffffffffffffffff1673ffffffffffffffffffffffffffffffffffffffff161415610f205760001515610d123360028481548110610c77577f4e487b7100000000000000000000000000000000000000000000000000000000600052603260045260246000fd5b9060005260206000209060050201600301805480602002602001604051908101604052809291908181526020018280548015610d0857602002820191906000526020600020905b8160009054906101000a900473ffffffffffffffffffffffffffffffffffffffff1673ffffffffffffffffffffffffffffffffffffffff1681526020019060010190808311610cbe575b50505050506126c1565b151514610d54576040517f08c379a0000000000000000000000000000000000000000000000000000000008152600401610d4b906141a0565b60405180910390fd5b6000151560028281548110610d92577f4e487b7100000000000000000000000000000000000000000000000000000000600052603260045260246000fd5b906000526020600020906005020160040160009054906101000a900460ff16151514610df3576040517f08c379a0000000000000000000000000000000000000000000000000000000008152600401610dea90614160565b60405180910390fd5b600160028281548110610e2f577f4e487b7100000000000000000000000000000000000000000000000000000000600052603260045260246000fd5b906000526020600020906005020160020160018282829054906101000a900460ff16610e5b919061442e565b92506101000a81548160ff021916908360ff16021790555060028181548110610ead577f4e487b7100000000000000000000000000000000000000000000000000000000600052603260045260246000fd5b9060005260206000209060050201600301339080600181540180825580915050600190039060005260206000200160009091909190916101000a81548173ffffffffffffffffffffffffffffffffffffffff021916908373ffffffffffffffffffffffffffffffffffffffff1602179055505b60016002600180549050610f349190614465565b610f3e91906143d8565b60028281548110610f78577f4e487b7100000000000000000000000000000000000000000000000000000000600052603260045260246000fd5b906000526020600020906005020160020160019054906101000a900460ff1660ff161015801561100457506000151560028281548110610fe1577f4e487b7100000000000000000000000000000000000000000000000000000000600052603260045260246000fd5b906000526020600020906005020160040160009054906101000a900460ff161515145b1561124857600160028281548110611045577f4e487b7100000000000000000000000000000000000000000000000000000000600052603260045260246000fd5b906000526020600020906005020160000160009054906101000a900473ffffffffffffffffffffffffffffffffffffffff169080600181540180825580915050600190039060005260206000200160009091909190916101000a81548173ffffffffffffffffffffffffffffffffffffffff021916908373ffffffffffffffffffffffffffffffffffffffff16021790555060028181548110611111577f4e487b7100000000000000000000000000000000000000000000000000000000600052603260045260246000fd5b90600052602060002090600502016001016000806002848154811061115f577f4e487b7100000000000000000000000000000000000000000000000000000000600052603260045260246000fd5b906000526020600020906005020160000160009054906101000a900473ffffffffffffffffffffffffffffffffffffffff1673ffffffffffffffffffffffffffffffffffffffff1673ffffffffffffffffffffffffffffffffffffffff1681526020019081526020016000209080546111d79061456b565b6111e2929190612e32565b5060016002828154811061121f577f4e487b7100000000000000000000000000000000000000000000000000000000600052603260045260246000fd5b906000526020600020906005020160040160006101000a81548160ff0219169083151502179055505b60018054905060028281548110611288577f4e487b7100000000000000000000000000000000000000000000000000000000600052603260045260246000fd5b906000526020600020906005020160020160009054906101000a900460ff1660ff1610158015611314575060001515600282815481106112f1577f4e487b7100000000000000000000000000000000000000000000000000000000600052603260045260246000fd5b906000526020600020906005020160040160009054906101000a900460ff161515145b1561138e5761138d60028281548110611356577f4e487b7100000000000000000000000000000000000000000000000000000000600052603260045260246000fd5b906000526020600020906005020160000160009054906101000a900473ffffffffffffffffffffffffffffffffffffffff16612278565b5b80806113999061459d565b915050610b89565b5050565b6000816040516020016113b89190613f41565b604051602081830303815290604052805190602001209050919050565b60606002805480602002602001604051908101604052809291908181526020016000905b828210156115f657838290600052602060002090600502016040518060c00160405290816000820160009054906101000a900473ffffffffffffffffffffffffffffffffffffffff1673ffffffffffffffffffffffffffffffffffffffff1673ffffffffffffffffffffffffffffffffffffffff1681526020016001820180546114829061456b565b80601f01602080910402602001604051908101604052809291908181526020018280546114ae9061456b565b80156114fb5780601f106114d0576101008083540402835291602001916114fb565b820191906000526020600020905b8154815290600101906020018083116114de57829003601f168201915b505050505081526020016002820160009054906101000a900460ff1660ff1660ff1681526020016002820160019054906101000a900460ff1660ff1660ff168152602001600382018054806020026020016040519081016040528092919081815260200182805480156115c357602002820191906000526020600020905b8160009054906101000a900473ffffffffffffffffffffffffffffffffffffffff1673ffffffffffffffffffffffffffffffffffffffff1681526020019060010190808311611579575b505050505081526020016004820160009054906101000a900460ff161515151581525050815260200190600101906113f9565b50505050905090565b611608336103f7565b611647576040517f08c379a000000000000000000000000000000000000000000000000000000000815260040161163e90614180565b60405180910390fd5b61165085612d92565b61168f576040517f08c379a0000000000000000000000000000000000000000000000000000000008152600401611686906141c0565b60405180910390fd5b611697612ebf565b84816000018190525083816020018190525082816080018190525081816060018190525033816040019073ffffffffffffffffffffffffffffffffffffffff16908173ffffffffffffffffffffffffffffffffffffffff16815250506003866040516117039190613f41565b9081526020016040518091039020600601819080600181540180825580915050600190039060005260206000209060050201600090919091909150600082015181600001908051906020019061175a929190612f04565b506020820151816001019080519060200190611777929190612f04565b5060408201518160020160006101000a81548173ffffffffffffffffffffffffffffffffffffffff021916908373ffffffffffffffffffffffffffffffffffffffff16021790555060608201518160030190805190602001906117db929190612f04565b5060808201518160040190805190602001906117f8929190612f04565b50505061180486611831565b6003876040516118149190613f41565b908152602001604051809103902060050181905550505050505050565b6000806003836040516118449190613f41565b9081526020016040518091039020600601805490509050600060405180602001604052806000815250905060006040518060200160405280600081525090506000831115611a8f5760038560405161189c9190613f41565b90815260200160405180910390206006016001846118ba9190614496565b815481106118f1577f4e487b7100000000000000000000000000000000000000000000000000000000600052603260045260246000fd5b9060005260206000209060050201600001805461190d9061456b565b80601f01602080910402602001604051908101604052809291908181526020018280546119399061456b565b80156119865780601f1061195b57610100808354040283529160200191611986565b820191906000526020600020905b81548152906001019060200180831161196957829003601f168201915b5050505050915060038560405161199d9190613f41565b90815260200160405180910390206006016001846119bb9190614496565b815481106119f2577f4e487b7100000000000000000000000000000000000000000000000000000000600052603260045260246000fd5b90600052602060002090600502016003018054611a0e9061456b565b80601f0160208091040260200160405190810160405280929190818152602001828054611a3a9061456b565b8015611a875780601f10611a5c57610100808354040283529160200191611a87565b820191906000526020600020905b815481529060010190602001808311611a6a57829003601f168201915b505050505090505b84600386604051611aa09190613f41565b9081526020016040518091039020600301600387604051611ac19190613f41565b90815260200160405180910390206002018484604051602001611ae8959493929190613f58565b604051602081830303815290604052805190602001209350505050919050565b611b10612f8a565b600382604051611b209190613f41565b908152602001604051809103902060010160009054906101000a900473ffffffffffffffffffffffffffffffffffffffff1673ffffffffffffffffffffffffffffffffffffffff163373ffffffffffffffffffffffffffffffffffffffff161480611b905750611b8f336103f7565b5b611bcf576040517f08c379a0000000000000000000000000000000000000000000000000000000008152600401611bc690614120565b60405180910390fd5b6000600383604051611be19190613f41565b90815260200160405180910390206000018054611bfd9061456b565b80601f0160208091040260200160405190810160405280929190818152602001828054611c299061456b565b8015611c765780601f10611c4b57610100808354040283529160200191611c76565b820191906000526020600020905b815481529060010190602001808311611c5957829003601f168201915b50505050509050600081511415611cc2576040517f08c379a0000000000000000000000000000000000000000000000000000000008152600401611cb990614100565b60405180910390fd5b600383604051611cd29190613f41565b908152602001604051809103902060405180610100016040529081600082018054611cfc9061456b565b80601f0160208091040260200160405190810160405280929190818152602001828054611d289061456b565b8015611d755780601f10611d4a57610100808354040283529160200191611d75565b820191906000526020600020905b815481529060010190602001808311611d5857829003601f168201915b505050505081526020016001820160009054906101000a900473ffffffffffffffffffffffffffffffffffffffff1673ffffffffffffffffffffffffffffffffffffffff1673ffffffffffffffffffffffffffffffffffffffff168152602001600282018054611de49061456b565b80601f0160208091040260200160405190810160405280929190818152602001828054611e109061456b565b8015611e5d5780601f10611e3257610100808354040283529160200191611e5d565b820191906000526020600020905b815481529060010190602001808311611e4057829003601f168201915b50505050508152602001600382018054611e769061456b565b80601f0160208091040260200160405190810160405280929190818152602001828054611ea29061456b565b8015611eef5780601f10611ec457610100808354040283529160200191611eef565b820191906000526020600020905b815481529060010190602001808311611ed257829003601f168201915b505050505081526020016004820160009054906101000a900460ff161515151581526020016004820160019054906101000a900473ffffffffffffffffffffffffffffffffffffffff1673ffffffffffffffffffffffffffffffffffffffff1673ffffffffffffffffffffffffffffffffffffffff1681526020016005820154815260200160068201805480602002602001604051908101604052809291908181526020016000905b8282101561226857838290600052602060002090600502016040518060a0016040529081600082018054611fcb9061456b565b80601f0160208091040260200160405190810160405280929190818152602001828054611ff79061456b565b80156120445780601f1061201957610100808354040283529160200191612044565b820191906000526020600020905b81548152906001019060200180831161202757829003601f168201915b5050505050815260200160018201805461205d9061456b565b80601f01602080910402602001604051908101604052809291908181526020018280546120899061456b565b80156120d65780601f106120ab576101008083540402835291602001916120d6565b820191906000526020600020905b8154815290600101906020018083116120b957829003601f168201915b505050505081526020016002820160009054906101000a900473ffffffffffffffffffffffffffffffffffffffff1673ffffffffffffffffffffffffffffffffffffffff1673ffffffffffffffffffffffffffffffffffffffff1681526020016003820180546121459061456b565b80601f01602080910402602001604051908101604052809291908181526020018280546121719061456b565b80156121be5780601f10612193576101008083540402835291602001916121be565b820191906000526020600020905b8154815290600101906020018083116121a157829003601f168201915b505050505081526020016004820180546121d79061456b565b80601f01602080910402602001604051908101604052809291908181526020018280546122039061456b565b80156122505780601f1061222557610100808354040283529160200191612250565b820191906000526020600020905b81548152906001019060200180831161223357829003601f168201915b50505050508152505081526020019060010190611f98565b5050505081525050915050919050565b60005b6002805490508110156126bd578173ffffffffffffffffffffffffffffffffffffffff16600282815481106122d9577f4e487b7100000000000000000000000000000000000000000000000000000000600052603260045260246000fd5b906000526020600020906005020160000160009054906101000a900473ffffffffffffffffffffffffffffffffffffffff1673ffffffffffffffffffffffffffffffffffffffff1614156126aa576002600160028054905061233b9190614496565b81548110612372577f4e487b7100000000000000000000000000000000000000000000000000000000600052603260045260246000fd5b9060005260206000209060050201600282815481106123ba577f4e487b7100000000000000000000000000000000000000000000000000000000600052603260045260246000fd5b90600052602060002090600502016000820160009054906101000a900473ffffffffffffffffffffffffffffffffffffffff168160000160006101000a81548173ffffffffffffffffffffffffffffffffffffffff021916908373ffffffffffffffffffffffffffffffffffffffff16021790555060018201816001019080546124439061456b565b61244e929190613000565b506002820160009054906101000a900460ff168160020160006101000a81548160ff021916908360ff1602179055506002820160019054906101000a900460ff168160020160016101000a81548160ff021916908360ff16021790555060038201816003019080546124c192919061308d565b506004820160009054906101000a900460ff168160040160006101000a81548160ff021916908315150217905550905050600260016002805490506125069190614496565b8154811061253d577f4e487b7100000000000000000000000000000000000000000000000000000000600052603260045260246000fd5b9060005260206000209060050201600080820160006101000a81549073ffffffffffffffffffffffffffffffffffffffff021916905560018201600061258391906130df565b6002820160006101000a81549060ff02191690556002820160016101000a81549060ff02191690556003820160006125bb919061311f565b6004820160006101000a81549060ff021916905550506002805480612609577f4e487b7100000000000000000000000000000000000000000000000000000000600052603160045260246000fd5b6001900381819060005260206000209060050201600080820160006101000a81549073ffffffffffffffffffffffffffffffffffffffff021916905560018201600061265591906130df565b6002820160006101000a81549060ff02191690556002820160016101000a81549060ff021916905560038201600061268d919061311f565b6004820160006101000a81549060ff0219169055505090556126bd565b80806126b59061459d565b91505061227b565b5050565b6000806000905060005b8351811015612760578473ffffffffffffffffffffffffffffffffffffffff16848281518110612724577f4e487b7100000000000000000000000000000000000000000000000000000000600052603260045260246000fd5b602002602001015173ffffffffffffffffffffffffffffffffffffffff16141561274d57600191505b80806127589061459d565b9150506126cb565b508091505092915050565b60005b600280549050811015612868573373ffffffffffffffffffffffffffffffffffffffff16600282815481106127cc577f4e487b7100000000000000000000000000000000000000000000000000000000600052603260045260246000fd5b906000526020600020906005020160000160009054906101000a900473ffffffffffffffffffffffffffffffffffffffff1673ffffffffffffffffffffffffffffffffffffffff161415612855576040517f08c379a000000000000000000000000000000000000000000000000000000000815260040161284c906141e0565b60405180910390fd5b80806128609061459d565b91505061276e565b5060001515612876336103f7565b1515146128b8576040517f08c379a00000000000000000000000000000000000000000000000000000000081526004016128af90614140565b60405180910390fd5b6128c0613140565b33816000019073ffffffffffffffffffffffffffffffffffffffff16908173ffffffffffffffffffffffffffffffffffffffff16815250506000816040019060ff16908160ff16815250506000816060019060ff16908160ff168152505081816020018190525060008160a0019015159081151581525050600281908060018154018082558091505060019003906000526020600020906005020160009091909190915060008201518160000160006101000a81548173ffffffffffffffffffffffffffffffffffffffff021916908373ffffffffffffffffffffffffffffffffffffffff16021790555060208201518160010190805190602001906129c7929190612f04565b5060408201518160020160006101000a81548160ff021916908360ff16021790555060608201518160020160016101000a81548160ff021916908360ff1602179055506080820151816003019080519060200190612a26929190613194565b5060a08201518160040160006101000a81548160ff02191690831515021790555050505050565b612a56336103f7565b612a95576040517f08c379a0000000000000000000000000000000000000000000000000000000008152600401612a8c90614180565b60405180910390fd5b60001515612aa286612d92565b151514612ae4576040517f08c379a0000000000000000000000000000000000000000000000000000000008152600401612adb906140e0565b60405180910390fd5b600485908060018154018082558091505060019003906000526020600020016000909190919091509080519060200190612b1f929190612f04565b5083600386604051612b319190613f41565b90815260200160405180910390206003019080519060200190612b55929190612f04565b5082600386604051612b679190613f41565b908152602001604051809103902060040160006101000a81548160ff02191690831515021790555084600386604051612ba09190613f41565b90815260200160405180910390206000019080519060200190612bc4929190612f04565b5033600386604051612bd69190613f41565b908152602001604051809103902060040160016101000a81548173ffffffffffffffffffffffffffffffffffffffff021916908373ffffffffffffffffffffffffffffffffffffffff16021790555081600386604051612c369190613f41565b90815260200160405180910390206002019080519060200190612c5a929190612f04565b5080600386604051612c6c9190613f41565b908152602001604051809103902060010160006101000a81548173ffffffffffffffffffffffffffffffffffffffff021916908373ffffffffffffffffffffffffffffffffffffffff1602179055505050505050565b60606000808373ffffffffffffffffffffffffffffffffffffffff1673ffffffffffffffffffffffffffffffffffffffff1681526020019081526020016000208054612d0d9061456b565b80601f0160208091040260200160405190810160405280929190818152602001828054612d399061456b565b8015612d865780601f10612d5b57610100808354040283529160200191612d86565b820191906000526020600020905b815481529060010190602001808311612d6957829003601f168201915b50505050509050919050565b6000806000905060005b600480549050811015612e285760048181548110612de3577f4e487b7100000000000000000000000000000000000000000000000000000000600052603260045260246000fd5b90600052602060002001604051612dfa9190613f2a565b604051809103902084805190602001201415612e1557600191505b8080612e209061459d565b915050612d9c565b5080915050919050565b828054612e3e9061456b565b90600052602060002090601f016020900481019282612e605760008555612eae565b82601f10612e715780548555612eae565b82800160010185558215612eae57600052602060002091601f016020900482015b82811115612ead578254825591600101919060010190612e92565b5b509050612ebb919061321e565b5090565b6040518060a001604052806060815260200160608152602001600073ffffffffffffffffffffffffffffffffffffffff16815260200160608152602001606081525090565b828054612f109061456b565b90600052602060002090601f016020900481019282612f325760008555612f79565b82601f10612f4b57805160ff1916838001178555612f79565b82800160010185558215612f79579182015b82811115612f78578251825591602001919060010190612f5d565b5b509050612f86919061321e565b5090565b60405180610100016040528060608152602001600073ffffffffffffffffffffffffffffffffffffffff1681526020016060815260200160608152602001600015158152602001600073ffffffffffffffffffffffffffffffffffffffff16815260200160008019168152602001606081525090565b82805461300c9061456b565b90600052602060002090601f01602090048101928261302e576000855561307c565b82601f1061303f578054855561307c565b8280016001018555821561307c57600052602060002091601f016020900482015b8281111561307b578254825591600101919060010190613060565b5b509050613089919061321e565b5090565b8280548282559060005260206000209081019282156130ce5760005260206000209182015b828111156130cd5782548255916001019190600101906130b2565b5b5090506130db919061321e565b5090565b5080546130eb9061456b565b6000825580601f106130fd575061311c565b601f01602090049060005260206000209081019061311b919061321e565b5b50565b508054600082559060005260206000209081019061313d919061321e565b50565b6040518060c00160405280600073ffffffffffffffffffffffffffffffffffffffff16815260200160608152602001600060ff168152602001600060ff168152602001606081526020016000151581525090565b82805482825590600052602060002090810192821561320d579160200282015b8281111561320c5782518260006101000a81548173ffffffffffffffffffffffffffffffffffffffff021916908373ffffffffffffffffffffffffffffffffffffffff160217905550916020019190600101906131b4565b5b50905061321a919061321e565b5090565b5b8082111561323757600081600090555060010161321f565b5090565b600061324e61324984614253565b614222565b9050808382526020820190508285602086028201111561326d57600080fd5b60005b8581101561329d578161328388826132e5565b845260208401935060208301925050600181019050613270565b5050509392505050565b60006132ba6132b58461427f565b614222565b9050828152602081018484840111156132d257600080fd5b6132dd848285614529565b509392505050565b6000813590506132f4816146b3565b92915050565b600082601f83011261330b57600080fd5b813561331b84826020860161323b565b91505092915050565b600081359050613333816146ca565b92915050565b600082601f83011261334a57600080fd5b813561335a8482602086016132a7565b91505092915050565b600081359050613372816146e1565b92915050565b60006020828403121561338a57600080fd5b6000613398848285016132e5565b91505092915050565b600080604083850312156133b457600080fd5b60006133c2858286016132e5565b925050602083013567ffffffffffffffff8111156133df57600080fd5b6133eb858286016132fa565b9150509250929050565b60006020828403121561340757600080fd5b600082013567ffffffffffffffff81111561342157600080fd5b61342d84828501613339565b91505092915050565b600080600080600060a0868803121561344e57600080fd5b600086013567ffffffffffffffff81111561346857600080fd5b61347488828901613339565b955050602086013567ffffffffffffffff81111561349157600080fd5b61349d88828901613339565b94505060406134ae88828901613324565b935050606086013567ffffffffffffffff8111156134cb57600080fd5b6134d788828901613339565b92505060806134e8888289016132e5565b9150509295509295909350565b600080600080600060a0868803121561350d57600080fd5b600086013567ffffffffffffffff81111561352757600080fd5b61353388828901613339565b955050602086013567ffffffffffffffff81111561355057600080fd5b61355c88828901613339565b945050604086013567ffffffffffffffff81111561357957600080fd5b61358588828901613339565b935050606086013567ffffffffffffffff8111156135a257600080fd5b6135ae88828901613339565b925050608086013567ffffffffffffffff8111156135cb57600080fd5b6135d788828901613339565b9150509295509295909350565b6000602082840312156135f657600080fd5b600061360484828501613363565b91505092915050565b6000613619838361364d565b60208301905092915050565b60006136318383613d2c565b905092915050565b60006136458383613e81565b905092915050565b613656816144ca565b82525050565b613665816144ca565b82525050565b600061367682614309565b613680818561435c565b935061368b836142af565b8060005b838110156136bc5781516136a3888261360d565b97506136ae83614335565b92505060018101905061368f565b5085935050505092915050565b60006136d482614309565b6136de818561436d565b93506136e9836142af565b8060005b8381101561371a578151613701888261360d565b975061370c83614335565b9250506001810190506136ed565b5085935050505092915050565b600061373282614314565b61373c818561437e565b93508360208202850161374e856142bf565b8060005b8581101561378a578484038952815161376b8582613625565b945061377683614342565b925060208a01995050600181019050613752565b50829750879550505050505092915050565b60006137a78261431f565b6137b1818561438f565b9350836020820285016137c3856142cf565b8060005b858110156137ff57848403895281516137e08582613639565b94506137eb8361434f565b925060208a019950506001810190506137c7565b50829750879550505050505092915050565b61381a816144dc565b82525050565b613829816144dc565b82525050565b613838816144e8565b82525050565b613847816144e8565b82525050565b6000815461385a8161456b565b61386481866143a0565b9450600182166000811461387f5760018114613890576138c3565b60ff198316865281860193506138c3565b613899856142df565b60005b838110156138bb5781548189015260018201915060208101905061389c565b838801955050505b50505092915050565b60006138d78261432a565b6138e181856143ab565b93506138f1818560208601614538565b6138fa816146a2565b840191505092915050565b60006139108261432a565b61391a81856143bc565b935061392a818560208601614538565b613933816146a2565b840191505092915050565b60006139498261432a565b61395381856143cd565b9350613963818560208601614538565b80840191505092915050565b6000815461397c8161456b565b61398681866143cd565b945060018216600081146139a157600181146139b2576139e5565b60ff198316865281860193506139e5565b6139bb856142f4565b60005b838110156139dd578154818901526001820191506020810190506139be565b838801955050505b50505092915050565b60006139fb6036836143bc565b91507f5265636f726420616c72656164792065786973747320666f722074686973207560008301527f7365722c2075706461746520697420696e7374656164000000000000000000006020830152604082019050919050565b6000613a61601f836143bc565b91507f76616363696e6174696f6e207265636f726420646f65736e74206578697374006000830152602082019050919050565b6000613aa16001836143cd565b91507f2c000000000000000000000000000000000000000000000000000000000000006000830152600182019050919050565b6000613ae16031836143bc565b91507f4f6e6c79207468652075736572207468656d73656c766573206f72206120564160008301527f2063616e20766965772064657461696c730000000000000000000000000000006020830152604082019050919050565b6000613b47601d836143bc565b91507f596f752061726520616c726561647920616e20617574686f72697479210000006000830152602082019050919050565b6000613b876024836143bc565b91507f5468657927726520616c726561647920616464656420746f20617574686f726960008301527f74696573000000000000000000000000000000000000000000000000000000006020830152604082019050919050565b6000613bed6028836143bc565b91507f4f6e6c792056616363696e6174696f6e20417574686f7269746965732061726560008301527f20616c6c6f7765640000000000000000000000000000000000000000000000006020830152604082019050919050565b6000613c53601d836143bc565b91507f596f7527766520616c726561647920766f74656420666f72207468656d0000006000830152602082019050919050565b6000613c936017836143bc565b91507f55736572206e6f742079657420726567697374657265640000000000000000006000830152602082019050919050565b6000613cd36025836143bc565b91507f596f7520616c7265616479206861766520612070656e64696e6720612070657460008301527f6974696f6e0000000000000000000000000000000000000000000000000000006020830152604082019050919050565b600060c083016000830151613d44600086018261364d565b5060208301518482036020860152613d5c82826138cc565b9150506040830151613d716040860182613f0c565b506060830151613d846060860182613f0c565b5060808301518482036080860152613d9c828261366b565b91505060a0830151613db160a0860182613811565b508091505092915050565b6000610100830160008301518482036000860152613dda82826138cc565b9150506020830151613def602086018261364d565b5060408301518482036040860152613e0782826138cc565b91505060608301518482036060860152613e2182826138cc565b9150506080830151613e366080860182613811565b5060a0830151613e4960a086018261364d565b5060c0830151613e5c60c086018261382f565b5060e083015184820360e0860152613e74828261379c565b9150508091505092915050565b600060a0830160008301518482036000860152613e9e82826138cc565b91505060208301518482036020860152613eb882826138cc565b9150506040830151613ecd604086018261364d565b5060608301518482036060860152613ee582826138cc565b91505060808301518482036080860152613eff82826138cc565b9150508091505092915050565b613f158161451c565b82525050565b613f248161451c565b82525050565b6000613f36828461384d565b915081905092915050565b6000613f4d828461393e565b915081905092915050565b6000613f64828861393e565b9150613f6f82613a94565b9150613f7b828761396f565b9150613f8682613a94565b9150613f92828661396f565b9150613f9d82613a94565b9150613fa9828561393e565b9150613fb482613a94565b9150613fc0828461393e565b91508190509695505050505050565b6000602082019050613fe4600083018461365c565b92915050565b600060a082019050613fff600083018861365c565b81810360208301526140118187613905565b90506140206040830186613f1b565b61402d6060830185613f1b565b61403a6080830184613820565b9695505050505050565b6000602082019050818103600083015261405e81846136c9565b905092915050565b600060208201905081810360008301526140808184613727565b905092915050565b600060208201905061409d6000830184613820565b92915050565b60006020820190506140b8600083018461383e565b92915050565b600060208201905081810360008301526140d88184613905565b905092915050565b600060208201905081810360008301526140f9816139ee565b9050919050565b6000602082019050818103600083015261411981613a54565b9050919050565b6000602082019050818103600083015261413981613ad4565b9050919050565b6000602082019050818103600083015261415981613b3a565b9050919050565b6000602082019050818103600083015261417981613b7a565b9050919050565b6000602082019050818103600083015261419981613be0565b9050919050565b600060208201905081810360008301526141b981613c46565b9050919050565b600060208201905081810360008301526141d981613c86565b9050919050565b600060208201905081810360008301526141f981613cc6565b9050919050565b6000602082019050818103600083015261421a8184613dbc565b905092915050565b6000604051905081810181811067ffffffffffffffff8211171561424957614248614673565b5b8060405250919050565b600067ffffffffffffffff82111561426e5761426d614673565b5b602082029050602081019050919050565b600067ffffffffffffffff82111561429a57614299614673565b5b601f19601f8301169050602081019050919050565b6000819050602082019050919050565b6000819050602082019050919050565b6000819050602082019050919050565b60008190508160005260206000209050919050565b60008190508160005260206000209050919050565b600081519050919050565b600081519050919050565b600081519050919050565b600081519050919050565b6000602082019050919050565b6000602082019050919050565b6000602082019050919050565b600082825260208201905092915050565b600082825260208201905092915050565b600082825260208201905092915050565b600082825260208201905092915050565b600081905092915050565b600082825260208201905092915050565b600082825260208201905092915050565b600081905092915050565b60006143e382614512565b91506143ee83614512565b9250827fffffffffffffffffffffffffffffffffffffffffffffffffffffffffffffffff03821115614423576144226145e6565b5b828201905092915050565b60006144398261451c565b91506144448361451c565b92508260ff0382111561445a576144596145e6565b5b828201905092915050565b600061447082614512565b915061447b83614512565b92508261448b5761448a614615565b5b828204905092915050565b60006144a182614512565b91506144ac83614512565b9250828210156144bf576144be6145e6565b5b828203905092915050565b60006144d5826144f2565b9050919050565b60008115159050919050565b6000819050919050565b600073ffffffffffffffffffffffffffffffffffffffff82169050919050565b6000819050919050565b600060ff82169050919050565b82818337600083830152505050565b60005b8381101561455657808201518184015260208101905061453b565b83811115614565576000848401525b50505050565b6000600282049050600182168061458357607f821691505b6020821081141561459757614596614644565b5b50919050565b60006145a882614512565b91507fffffffffffffffffffffffffffffffffffffffffffffffffffffffffffffffff8214156145db576145da6145e6565b5b600182019050919050565b7f4e487b7100000000000000000000000000000000000000000000000000000000600052601160045260246000fd5b7f4e487b7100000000000000000000000000000000000000000000000000000000600052601260045260246000fd5b7f4e487b7100000000000000000000000000000000000000000000000000000000600052602260045260246000fd5b7f4e487b7100000000000000000000000000000000000000000000000000000000600052604160045260246000fd5b6000601f19601f8301169050919050565b6146bc816144ca565b81146146c757600080fd5b50565b6146d3816144dc565b81146146de57600080fd5b50565b6146ea81614512565b81146146f557600080fd5b5056fea2646970667358221220442d8e95c53432f1d788afcab2a85f0e315de2c88dd6ffa071c5ec86b99931a964736f6c63430008000033",
  "immutableReferences": {},
  "source": "// SPDX-License-Identifier: MIT\r\npragma solidity >=0.4.22;\r\npragma experimental ABIEncoderV2;\r\ncontract Vaccinations{\r\n\r\n    struct vaccine{\r\n        string name;\r\n        string batch_id;\r\n        address addedBy;\r\n        string administrationDate;\r\n        string location;\r\n    }\r\n    struct vaccination_record{\r\n        string user_id;\r\n        address user_address;\r\n        string nationality;\r\n        string name;\r\n        bool gender; //1 for female, 0 for male\r\n        address createdBy;\r\n        bytes32 detailshash;\r\n        vaccine[] vaccinations;\r\n\r\n    }\r\n    struct petition{ //those who want to become a vaccination authority\r\n        address petitioner;\r\n        string name;\r\n        uint8 timeLapsed;\r\n        uint8 votesReceived;\r\n        address[] voters;\r\n        bool added;\r\n    }\r\n    mapping(address=>string) authority_name;\r\n    address [] public authorities;\r\n    petition [] public petitions;\r\n    //vaccination_record[] public vaccinationRecords;\r\n    mapping (string => vaccination_record) records;\r\n    string[] registered_users;\r\n\r\n    modifier onlyVaccinationAuthority{\r\n        require(checkIfVaccinationAuthority(msg.sender), \"Only Vaccination Authorities are allowed\");\r\n        _;\r\n    }\r\n\r\n\r\n    constructor(address a1, address a2, address a3){\r\n        authorities.push(a1);\r\n        authorities.push(a2);\r\n        authorities.push(a3);\r\n        authority_name[authorities[0]]=\"NADRA\";\r\n        authority_name[authorities[1]]=\"PIMS\";\r\n        authority_name[authorities[2]]=\"NCOC\";\r\n    }\r\n\r\n    function vote(address _petitioner) public onlyVaccinationAuthority{\r\n        for (uint i=0; i<petitions.length;i++){\r\n            //first increment time lapsed for all petitions\r\n            petitions[i].timeLapsed+=1;\r\n        }\r\n        for (uint i=0; i<petitions.length; i++){\r\n            //add vote of the person being voted for\r\n            if (petitions[i].petitioner==_petitioner){\r\n                require(checkIfVoted(msg.sender, petitions[i].voters)==false, \"You've already voted for them\");\r\n                require(petitions[i].added==false, \"They're already added to authorities\");\r\n                petitions[i].votesReceived+=1;\r\n                petitions[i].voters.push(msg.sender);\r\n            }\r\n            //next check if any votes for any petitions have reached the threshold, if so they should be added to authorities\r\n            if (petitions[i].votesReceived>=authorities.length/2+1 && petitions[i].added==false ){\r\n                authorities.push(petitions[i].petitioner); //add to trusted\r\n                authority_name[petitions[i].petitioner]=petitions[i].name;\r\n                petitions[i].added=true;\r\n            }\r\n            //check if any that have not receieved needed votes have been in the petitioner array for more than 10 votes, if so, remove them\r\n            if (petitions[i].timeLapsed>=authorities.length && petitions[i].added==false){ //actually 10\r\n                removePetition(petitions[i].petitioner);\r\n            }\r\n        }\r\n    }\r\n\r\n    //call this function in order to submit a petition if you want to become a Vaccination Authority\r\n    function submitPetition(string memory _name) public{\r\n        for(uint i=0; i<petitions.length; i++){\r\n            if (petitions[i].petitioner==msg.sender){\r\n                revert(\"You already have a pending a petition\");\r\n            }\r\n        }\r\n        require(checkIfVaccinationAuthority(msg.sender)==false, \"You are already an authority!\");\r\n        petition memory temp;\r\n        temp.petitioner=msg.sender;\r\n        temp.timeLapsed=0;\r\n        temp.votesReceived=0;\r\n        temp.name=_name;\r\n        temp.added=false;\r\n        petitions.push(temp);\r\n    }\r\n\r\n    function viewPetitions() view public returns(petition[] memory){\r\n        return petitions;\r\n    }\r\n\r\n    //call this function to remove a petition from petitioner array\r\n    function removePetition(address petitioner) public  {\r\n        for (uint i = 0;i<petitions.length; i++){\r\n            if (petitions[i].petitioner==petitioner){\r\n                petitions[i] = petitions[petitions.length-1];\r\n                delete petitions[petitions.length-1];\r\n                petitions.pop();\r\n                break;\r\n            }\r\n        }\r\n\r\n    }\r\n\r\n    //call this function to check if a voter has already voted for this petitioner\r\n    function checkIfVoted(address _voter, address[] memory _voters) public view returns(bool){\r\n        bool voted=false;\r\n        for (uint i=0; i<_voters.length; i++){\r\n            if (_voters[i]==_voter){\r\n                voted=true;\r\n            }\r\n        }\r\n        return voted;\r\n    }\r\n\r\n    function checkIfVaccinationAuthority(address _vacc) public view returns(bool trust){\r\n        bool canWeTrust = false;\r\n        for(uint i=0;i<authorities.length;i++){\r\n            if(_vacc==authorities[i]){\r\n                canWeTrust = true;\r\n            }\r\n        }\r\n        return canWeTrust;\r\n    }\r\n\r\n    function registerUser(string memory _id, string memory _name, bool _gender, string memory _nationality, address _user_address) public onlyVaccinationAuthority{\r\n        require(userExists(_id)==false, \"Record already exists for this user, update it instead\");\r\n        registered_users.push(_id);\r\n        records[_id].name=_name;\r\n        records[_id].gender=_gender;\r\n        records[_id].user_id=_id;\r\n        records[_id].createdBy=msg.sender;\r\n        records[_id].nationality=_nationality;\r\n        records[_id].user_address=_user_address;\r\n    }\r\n\r\n    function addVaccination(string memory user_id, string memory _vacName, string memory _batchID, string memory location, string memory date) public onlyVaccinationAuthority{\r\n        require (userExists(user_id), \"User not yet registered\");\r\n        vaccine memory temp;\r\n        temp.name=_vacName;\r\n        temp.batch_id=_batchID;\r\n        temp.location=location;\r\n        temp.administrationDate=date;\r\n        temp.addedBy=msg.sender;\r\n        records[user_id].vaccinations.push(temp);\r\n        records[user_id].detailshash=calculateHash(user_id);\r\n    }\r\n\r\n    function userExists(string memory user_id) public view returns(bool){\r\n        bool exists=false;\r\n        for (uint i=0; i<registered_users.length; i++){\r\n            if (keccak256(bytes(user_id))==keccak256(bytes(registered_users[i]))){\r\n                exists=true;\r\n            }\r\n        }\r\n        return exists;\r\n    }\r\n\r\n    //take and store hash of: cnic and name of all vaccines and their dates\r\n\r\n    function calculateHash(string memory user_id) public view returns (bytes32 ){\r\n        uint numVaccines=records[user_id].vaccinations.length;\r\n        string memory latestVaccine=\"\";\r\n        string memory latestVaccineDate=\"\";\r\n        if (numVaccines>0){\r\n            latestVaccine=records[user_id].vaccinations[numVaccines-1].name;\r\n            latestVaccineDate=records[user_id].vaccinations[numVaccines-1].administrationDate;\r\n        }\r\n        return(keccak256(abi.encodePacked(user_id,\",\",records[user_id].name,\",\",records[user_id].nationality,\",\", latestVaccine, \",\", latestVaccineDate)));\r\n    }\r\n\r\n    function getVaccinationRecord(string memory user_id) public view returns (vaccination_record memory){\r\n        require (msg.sender==records[user_id].user_address || checkIfVaccinationAuthority(msg.sender), \"Only the user themselves or a VA can view details\");\r\n        bytes memory tempEmptyStringTest = bytes(records[user_id].user_id);\r\n        require(tempEmptyStringTest.length != 0,\"vaccination record doesnt exist\");\r\n        return records[user_id];\r\n    }\r\n    function getVaccinationHash(string memory user_id) public view returns (bytes32){\r\n        return records[user_id].detailshash;\r\n    }\r\n    function getVaccinationRecordPublic(string memory user_id) public view returns (string memory){\r\n        bytes memory tempEmptyStringTest = bytes(records[user_id].user_id);\r\n        require(tempEmptyStringTest.length != 0,\"vaccination record doesnt exist\");\r\n        uint numVaccines=records[user_id].vaccinations.length;\r\n        string memory latestVaccine=\"\";\r\n        string memory latestVaccineDate=\"\";\r\n        if (numVaccines>0){\r\n            latestVaccine=records[user_id].vaccinations[numVaccines-1].name;\r\n            latestVaccineDate=records[user_id].vaccinations[numVaccines-1].administrationDate;\r\n        }\r\n        return(string(abi.encodePacked(user_id,\",\",records[user_id].name,\",\",records[user_id].nationality,\",\", latestVaccine, \",\", latestVaccineDate)));\r\n\r\n    }\r\n    function getVaccinationAuthorities() public view returns (address[] memory){\r\n        return authorities;\r\n    }\r\n\r\n    function getAuthorityName(address _add) public view returns (string memory){\r\n        return authority_name[_add];\r\n    }\r\n\r\n    function getHashQR(string memory data) public view returns (bytes32 ){\r\n        return(keccak256(abi.encodePacked(data)));\r\n    }\r\n}\r\n\r\n//commands to run nd test\r\n/*\r\n*********checking management of records**************\r\nlet x = await Vaccinations.deployed()\r\nlet acc = await web3.eth.getAccounts()\r\nx.registerUser(\"1344\", \"Reza\", 1, \"Pakistani\", \"0x5C626149C2b5d1f199292a4C446D9f667758DfdA\", {from:acc[0]})\r\nx.calculateHash(\"1344\")\r\nx.getVaccinationRecord(\"1344\")\r\nx.addVaccination(\"1344\", \"SinoVac\", \"123456xda\", \"F-9 Islamabad\", \"21 October 2021\",{from:acc[0]})\r\nx.getVaccinationRecord(\"1344\",{from:acc[0]})\r\nx.calculateHash(\"1344\")\r\nx.addVaccination(\"4\", \"SinoVac\", \"123456xda\", \"F-9 Islamabad\", \"21 October 2021\") => should return error\r\n\r\n****************checking voting***********\r\nx.submitPetition(\"Indian Health Board\", {from:\"0x5eF34402dD52aC15A6dE46490Eda54005EE4038f\"})\r\nx.viewPetitions()\r\nx.vote(\"0x5eF34402dD52aC15A6dE46490Eda54005EE4038f\")\r\nx.vote(\"0x5eF34402dD52aC15A6dE46490Eda54005EE4038f\", {from:acc[1]}) \r\nx.viewPetitions()\r\nx.vote(\"0x5eF34402dD52aC15A6dE46490Eda54005EE4038f\", {from:acc[2]})\r\nx.viewPetitions()\r\nx.getVaccinationAuthorities()\r\n*/",
  "sourcePath": "C:\\Users\\NEHA SAI PRIYA\\Downloads\\Covid-Vaccine-Verification-Blockchain-main\\Covid-Vaccine-Verification-Blockchain-main\\contracts\\vaccination.sol",
  "compiler": {
    "name": "solc",
    "version": "0.8.0+commit.c7dfd78e.Emscripten.clang"
  },
  "schemaVersion": "3.4.16",
  "updatedAt": "2025-05-26T09:03:48.034Z",
  "networkType": "ethereum",
  "devdoc": {
    "kind": "dev",
    "methods": {},
    "version": 1
  },
  "userdoc": {
    "kind": "user",
    "methods": {},
    "version": 1
  }
}