{
  "contractName": "VaccinationRegistry",
  "abi": [
    {
      "inputs": [],
      "stateMutability": "nonpayable",
      "type": "constructor"
    },
    {
      "anonymous": false,
      "inputs": [
        {
          "indexed": true,
          "internalType": "address",
          "name": "owner",
          "type": "address"
        },
        {
          "indexed": true,
          "internalType": "address",
          "name": "approved",
          "type": "address"
        },
        {
          "indexed": true,
          "internalType": "uint256",
          "name": "tokenId",
          "type": "uint256"
        }
      ],
      "name": "Approval",
      "type": "event"
    },
    {
      "anonymous": false,
      "inputs": [
        {
          "indexed": true,
          "internalType": "address",
          "name": "owner",
          "type": "address"
        },
        {
          "indexed": true,
          "internalType": "address",
          "name": "operator",
          "type": "address"
        },
        {
          "indexed": false,
          "internalType": "bool",
          "name": "approved",
          "type": "bool"
        }
      ],
      "name": "ApprovalForAll",
      "type": "event"
    },
    {
      "anonymous": false,
      "inputs": [
        {
          "indexed": true,
          "internalType": "uint256",
          "name": "tokenId",
          "type": "uint256"
        },
        {
          "indexed": false,
          "internalType": "string",
          "name": "name",
          "type": "string"
        },
        {
          "indexed": true,
          "internalType": "address",
          "name": "parent",
          "type": "address"
        },
        {
          "indexed": true,
          "internalType": "address",
          "name": "hospital",
          "type": "address"
        }
      ],
      "name": "ChildRegistered",
      "type": "event"
    },
    {
      "anonymous": false,
      "inputs": [
        {
          "indexed": true,
          "internalType": "address",
          "name": "hospital",
          "type": "address"
        },
        {
          "indexed": false,
          "internalType": "bool",
          "name": "authorized",
          "type": "bool"
        }
      ],
      "name": "HospitalAuthorized",
      "type": "event"
    },
    {
      "anonymous": false,
      "inputs": [
        {
          "indexed": true,
          "internalType": "address",
          "name": "hospital",
          "type": "address"
        },
        {
          "indexed": false,
          "internalType": "string",
          "name": "name",
          "type": "string"
        }
      ],
      "name": "HospitalRegistered",
      "type": "event"
    },
    {
      "anonymous": false,
      "inputs": [
        {
          "indexed": true,
          "internalType": "address",
          "name": "previousOwner",
          "type": "address"
        },
        {
          "indexed": true,
          "internalType": "address",
          "name": "newOwner",
          "type": "address"
        }
      ],
      "name": "OwnershipTransferred",
      "type": "event"
    },
    {
      "anonymous": false,
      "inputs": [
        {
          "indexed": true,
          "internalType": "uint256",
          "name": "tokenId",
          "type": "uint256"
        },
        {
          "indexed": false,
          "internalType": "uint256",
          "name": "vaccinationIndex",
          "type": "uint256"
        },
        {
          "indexed": false,
          "internalType": "string",
          "name": "qrCodeHash",
          "type": "string"
        }
      ],
      "name": "QRCodeGenerated",
      "type": "event"
    },
    {
      "anonymous": false,
      "inputs": [
        {
          "indexed": true,
          "internalType": "uint256",
          "name": "tokenId",
          "type": "uint256"
        },
        {
          "indexed": false,
          "internalType": "string",
          "name": "vaccineName",
          "type": "string"
        },
        {
          "indexed": false,
          "internalType": "uint256",
          "name": "dueDate",
          "type": "uint256"
        }
      ],
      "name": "ReminderTriggered",
      "type": "event"
    },
    {
      "anonymous": false,
      "inputs": [
        {
          "indexed": true,
          "internalType": "address",
          "name": "from",
          "type": "address"
        },
        {
          "indexed": true,
          "internalType": "address",
          "name": "to",
          "type": "address"
        },
        {
          "indexed": true,
          "internalType": "uint256",
          "name": "tokenId",
          "type": "uint256"
        }
      ],
      "name": "Transfer",
      "type": "event"
    },
    {
      "anonymous": false,
      "inputs": [
        {
          "indexed": true,
          "internalType": "uint256",
          "name": "tokenId",
          "type": "uint256"
        },
        {
          "indexed": false,
          "internalType": "string",
          "name": "vaccineName",
          "type": "string"
        },
        {
          "indexed": false,
          "internalType": "uint256",
          "name": "dateAdministered",
          "type": "uint256"
        },
        {
          "indexed": false,
          "internalType": "string",
          "name": "qrCodeHash",
          "type": "string"
        }
      ],
      "name": "VaccinationRecorded",
      "type": "event"
    },
    {
      "inputs": [
        {
          "internalType": "address",
          "name": "to",
          "type": "address"
        },
        {
          "internalType": "uint256",
          "name": "tokenId",
          "type": "uint256"
        }
      ],
      "name": "approve",
      "outputs": [],
      "stateMutability": "nonpayable",
      "type": "function"
    },
    {
      "inputs": [
        {
          "internalType": "address",
          "name": "",
          "type": "address"
        }
      ],
      "name": "authorizedHospitals",
      "outputs": [
        {
          "internalType": "bool",
          "name": "",
          "type": "bool"
        }
      ],
      "stateMutability": "view",
      "type": "function"
    },
    {
      "inputs": [
        {
          "internalType": "address",
          "name": "owner",
          "type": "address"
        }
      ],
      "name": "balanceOf",
      "outputs": [
        {
          "internalType": "uint256",
          "name": "",
          "type": "uint256"
        }
      ],
      "stateMutability": "view",
      "type": "function"
    },
    {
      "inputs": [
        {
          "internalType": "uint256",
          "name": "",
          "type": "uint256"
        }
      ],
      "name": "children",
      "outputs": [
        {
          "internalType": "string",
          "name": "name",
          "type": "string"
        },
        {
          "internalType": "uint256",
          "name": "dateOfBirth",
          "type": "uint256"
        },
        {
          "internalType": "string",
          "name": "parentName",
          "type": "string"
        },
        {
          "internalType": "string",
          "name": "contactInfo",
          "type": "string"
        },
        {
          "internalType": "address",
          "name": "parentAddress",
          "type": "address"
        },
        {
          "internalType": "address",
          "name": "registeredByHospital",
          "type": "address"
        },
        {
          "internalType": "string",
          "name": "hospitalName",
          "type": "string"
        },
        {
          "internalType": "bool",
          "name": "isRegistered",
          "type": "bool"
        },
        {
          "internalType": "uint256",
          "name": "registrationDate",
          "type": "uint256"
        }
      ],
      "stateMutability": "view",
      "type": "function"
    },
    {
      "inputs": [
        {
          "internalType": "uint256",
          "name": "tokenId",
          "type": "uint256"
        }
      ],
      "name": "getApproved",
      "outputs": [
        {
          "internalType": "address",
          "name": "",
          "type": "address"
        }
      ],
      "stateMutability": "view",
      "type": "function"
    },
    {
      "inputs": [
        {
          "internalType": "address",
          "name": "",
          "type": "address"
        }
      ],
      "name": "hospitals",
      "outputs": [
        {
          "internalType": "string",
          "name": "name",
          "type": "string"
        },
        {
          "internalType": "string",
          "name": "licenseNumber",
          "type": "string"
        },
        {
          "internalType": "string",
          "name": "contactInfo",
          "type": "string"
        },
        {
          "internalType": "bool",
          "name": "isAuthorized",
          "type": "bool"
        },
        {
          "internalType": "uint256",
          "name": "registrationDate",
          "type": "uint256"
        }
      ],
      "stateMutability": "view",
      "type": "function"
    },
    {
      "inputs": [
        {
          "internalType": "address",
          "name": "owner",
          "type": "address"
        },
        {
          "internalType": "address",
          "name": "operator",
          "type": "address"
        }
      ],
      "name": "isApprovedForAll",
      "outputs": [
        {
          "internalType": "bool",
          "name": "",
          "type": "bool"
        }
      ],
      "stateMutability": "view",
      "type": "function"
    },
    {
      "inputs": [],
      "name": "name",
      "outputs": [
        {
          "internalType": "string",
          "name": "",
          "type": "string"
        }
      ],
      "stateMutability": "view",
      "type": "function"
    },
    {
      "inputs": [],
      "name": "owner",
      "outputs": [
        {
          "internalType": "address",
          "name": "",
          "type": "address"
        }
      ],
      "stateMutability": "view",
      "type": "function"
    },
    {
      "inputs": [
        {
          "internalType": "uint256",
          "name": "tokenId",
          "type": "uint256"
        }
      ],
      "name": "ownerOf",
      "outputs": [
        {
          "internalType": "address",
          "name": "",
          "type": "address"
        }
      ],
      "stateMutability": "view",
      "type": "function"
    },
    {
      "inputs": [
        {
          "internalType": "address",
          "name": "",
          "type": "address"
        },
        {
          "internalType": "uint256",
          "name": "",
          "type": "uint256"
        }
      ],
      "name": "parentToChildren",
      "outputs": [
        {
          "internalType": "uint256",
          "name": "",
          "type": "uint256"
        }
      ],
      "stateMutability": "view",
      "type": "function"
    },
    {
      "inputs": [],
      "name": "renounceOwnership",
      "outputs": [],
      "stateMutability": "nonpayable",
      "type": "function"
    },
    {
      "inputs": [
        {
          "internalType": "address",
          "name": "from",
          "type": "address"
        },
        {
          "internalType": "address",
          "name": "to",
          "type": "address"
        },
        {
          "internalType": "uint256",
          "name": "tokenId",
          "type": "uint256"
        }
      ],
      "name": "safeTransferFrom",
      "outputs": [],
      "stateMutability": "nonpayable",
      "type": "function"
    },
    {
      "inputs": [
        {
          "internalType": "address",
          "name": "from",
          "type": "address"
        },
        {
          "internalType": "address",
          "name": "to",
          "type": "address"
        },
        {
          "internalType": "uint256",
          "name": "tokenId",
          "type": "uint256"
        },
        {
          "internalType": "bytes",
          "name": "data",
          "type": "bytes"
        }
      ],
      "name": "safeTransferFrom",
      "outputs": [],
      "stateMutability": "nonpayable",
      "type": "function"
    },
    {
      "inputs": [
        {
          "internalType": "address",
          "name": "operator",
          "type": "address"
        },
        {
          "internalType": "bool",
          "name": "approved",
          "type": "bool"
        }
      ],
      "name": "setApprovalForAll",
      "outputs": [],
      "stateMutability": "nonpayable",
      "type": "function"
    },
    {
      "inputs": [
        {
          "internalType": "bytes4",
          "name": "interfaceId",
          "type": "bytes4"
        }
      ],
      "name": "supportsInterface",
      "outputs": [
        {
          "internalType": "bool",
          "name": "",
          "type": "bool"
        }
      ],
      "stateMutability": "view",
      "type": "function"
    },
    {
      "inputs": [],
      "name": "symbol",
      "outputs": [
        {
          "internalType": "string",
          "name": "",
          "type": "string"
        }
      ],
      "stateMutability": "view",
      "type": "function"
    },
    {
      "inputs": [
        {
          "internalType": "uint256",
          "name": "",
          "type": "uint256"
        }
      ],
      "name": "tokenURIs",
      "outputs": [
        {
          "internalType": "string",
          "name": "",
          "type": "string"
        }
      ],
      "stateMutability": "view",
      "type": "function"
    },
    {
      "inputs": [
        {
          "internalType": "address",
          "name": "from",
          "type": "address"
        },
        {
          "internalType": "address",
          "name": "to",
          "type": "address"
        },
        {
          "internalType": "uint256",
          "name": "tokenId",
          "type": "uint256"
        }
      ],
      "name": "transferFrom",
      "outputs": [],
      "stateMutability": "nonpayable",
      "type": "function"
    },
    {
      "inputs": [
        {
          "internalType": "address",
          "name": "newOwner",
          "type": "address"
        }
      ],
      "name": "transferOwnership",
      "outputs": [],
      "stateMutability": "nonpayable",
      "type": "function"
    },
    {
      "inputs": [
        {
          "internalType": "uint256",
          "name": "",
          "type": "uint256"
        },
        {
          "internalType": "uint256",
          "name": "",
          "type": "uint256"
        }
      ],
      "name": "vaccinationHistory",
      "outputs": [
        {
          "internalType": "string",
          "name": "vaccineName",
          "type": "string"
        },
        {
          "internalType": "uint256",
          "name": "dateAdministered",
          "type": "uint256"
        },
        {
          "internalType": "string",
          "name": "hospitalName",
          "type": "string"
        },
        {
          "internalType": "address",
          "name": "administeredBy",
          "type": "address"
        },
        {
          "internalType": "string",
          "name": "batchNumber",
          "type": "string"
        },
        {
          "internalType": "uint256",
          "name": "nextDueDate",
          "type": "uint256"
        },
        {
          "internalType": "bool",
          "name": "isVerified",
          "type": "bool"
        },
        {
          "internalType": "string",
          "name": "ipfsHash",
          "type": "string"
        },
        {
          "internalType": "string",
          "name": "qrCodeHash",
          "type": "string"
        }
      ],
      "stateMutability": "view",
      "type": "function"
    },
    {
      "inputs": [
        {
          "internalType": "uint256",
          "name": "",
          "type": "uint256"
        },
        {
          "internalType": "uint256",
          "name": "",
          "type": "uint256"
        }
      ],
      "name": "vaccinationReminders",
      "outputs": [
        {
          "internalType": "uint256",
          "name": "",
          "type": "uint256"
        }
      ],
      "stateMutability": "view",
      "type": "function"
    },
    {
      "inputs": [
        {
          "internalType": "string",
          "name": "_name",
          "type": "string"
        },
        {
          "internalType": "string",
          "name": "_licenseNumber",
          "type": "string"
        },
        {
          "internalType": "string",
          "name": "_contactInfo",
          "type": "string"
        }
      ],
      "name": "registerHospital",
      "outputs": [],
      "stateMutability": "nonpayable",
      "type": "function"
    },
    {
      "inputs": [
        {
          "internalType": "string",
          "name": "_name",
          "type": "string"
        },
        {
          "internalType": "uint256",
          "name": "_dateOfBirth",
          "type": "uint256"
        },
        {
          "internalType": "string",
          "name": "_parentName",
          "type": "string"
        },
        {
          "internalType": "string",
          "name": "_contactInfo",
          "type": "string"
        },
        {
          "internalType": "address",
          "name": "_parentAddress",
          "type": "address"
        },
        {
          "internalType": "string",
          "name": "_tokenURI",
          "type": "string"
        }
      ],
      "name": "registerChild",
      "outputs": [
        {
          "internalType": "uint256",
          "name": "",
          "type": "uint256"
        }
      ],
      "stateMutability": "nonpayable",
      "type": "function"
    },
    {
      "inputs": [
        {
          "internalType": "uint256",
          "name": "_tokenId",
          "type": "uint256"
        },
        {
          "internalType": "string",
          "name": "_vaccineName",
          "type": "string"
        },
        {
          "internalType": "string",
          "name": "_batchNumber",
          "type": "string"
        },
        {
          "internalType": "uint256",
          "name": "_nextDueDate",
          "type": "uint256"
        },
        {
          "internalType": "string",
          "name": "_ipfsHash",
          "type": "string"
        }
      ],
      "name": "recordVaccination",
      "outputs": [],
      "stateMutability": "nonpayable",
      "type": "function"
    },
    {
      "inputs": [
        {
          "internalType": "address",
          "name": "_parent",
          "type": "address"
        }
      ],
      "name": "getParentChildren",
      "outputs": [
        {
          "internalType": "uint256[]",
          "name": "",
          "type": "uint256[]"
        }
      ],
      "stateMutability": "view",
      "type": "function"
    },
    {
      "inputs": [
        {
          "internalType": "uint256",
          "name": "_tokenId",
          "type": "uint256"
        }
      ],
      "name": "getVaccinationReminders",
      "outputs": [
        {
          "internalType": "uint256[]",
          "name": "",
          "type": "uint256[]"
        }
      ],
      "stateMutability": "view",
      "type": "function"
    },
    {
      "inputs": [
        {
          "internalType": "uint256",
          "name": "_tokenId",
          "type": "uint256"
        }
      ],
      "name": "getUpcomingVaccinations",
      "outputs": [
        {
          "internalType": "string[]",
          "name": "vaccineNames",
          "type": "string[]"
        },
        {
          "internalType": "uint256[]",
          "name": "dueDates",
          "type": "uint256[]"
        }
      ],
      "stateMutability": "view",
      "type": "function"
    },
    {
      "inputs": [
        {
          "internalType": "uint256",
          "name": "_tokenId",
          "type": "uint256"
        }
      ],
      "name": "generateVerificationQR",
      "outputs": [
        {
          "internalType": "string",
          "name": "qrData",
          "type": "string"
        },
        {
          "internalType": "string",
          "name": "childName",
          "type": "string"
        },
        {
          "internalType": "uint256",
          "name": "totalVaccinations",
          "type": "uint256"
        },
        {
          "internalType": "bool",
          "name": "isUpToDate",
          "type": "bool"
        }
      ],
      "stateMutability": "view",
      "type": "function"
    },
    {
      "inputs": [
        {
          "internalType": "address",
          "name": "_hospital",
          "type": "address"
        },
        {
          "internalType": "bool",
          "name": "_authorized",
          "type": "bool"
        }
      ],
      "name": "setHospitalAuthorization",
      "outputs": [],
      "stateMutability": "nonpayable",
      "type": "function"
    },
    {
      "inputs": [
        {
          "internalType": "address",
          "name": "_hospital",
          "type": "address"
        }
      ],
      "name": "getHospitalInfo",
      "outputs": [
        {
          "components": [
            {
              "internalType": "string",
              "name": "name",
              "type": "string"
            },
            {
              "internalType": "string",
              "name": "licenseNumber",
              "type": "string"
            },
            {
              "internalType": "string",
              "name": "contactInfo",
              "type": "string"
            },
            {
              "internalType": "bool",
              "name": "isAuthorized",
              "type": "bool"
            },
            {
              "internalType": "uint256",
              "name": "registrationDate",
              "type": "uint256"
            }
          ],
          "internalType": "struct VaccinationRegistry.Hospital",
          "name": "",
          "type": "tuple"
        }
      ],
      "stateMutability": "view",
      "type": "function"
    },
    {
      "inputs": [
        {
          "internalType": "uint256",
          "name": "_tokenId",
          "type": "uint256"
        }
      ],
      "name": "getChildInfo",
      "outputs": [
        {
          "components": [
            {
              "internalType": "string",
              "name": "name",
              "type": "string"
            },
            {
              "internalType": "uint256",
              "name": "dateOfBirth",
              "type": "uint256"
            },
            {
              "internalType": "string",
              "name": "parentName",
              "type": "string"
            },
            {
              "internalType": "string",
              "name": "contactInfo",
              "type": "string"
            },
            {
              "internalType": "address",
              "name": "parentAddress",
              "type": "address"
            },
            {
              "internalType": "address",
              "name": "registeredByHospital",
              "type": "address"
            },
            {
              "internalType": "string",
              "name": "hospitalName",
              "type": "string"
            },
            {
              "internalType": "bool",
              "name": "isRegistered",
              "type": "bool"
            },
            {
              "internalType": "uint256",
              "name": "registrationDate",
              "type": "uint256"
            }
          ],
          "internalType": "struct VaccinationRegistry.Child",
          "name": "",
          "type": "tuple"
        }
      ],
      "stateMutability": "view",
      "type": "function"
    },
    {
      "inputs": [
        {
          "internalType": "uint256",
          "name": "_tokenId",
          "type": "uint256"
        }
      ],
      "name": "getVaccinationHistory",
      "outputs": [
        {
          "components": [
            {
              "internalType": "string",
              "name": "vaccineName",
              "type": "string"
            },
            {
              "internalType": "uint256",
              "name": "dateAdministered",
              "type": "uint256"
            },
            {
              "internalType": "string",
              "name": "hospitalName",
              "type": "string"
            },
            {
              "internalType": "address",
              "name": "administeredBy",
              "type": "address"
            },
            {
              "internalType": "string",
              "name": "batchNumber",
              "type": "string"
            },
            {
              "internalType": "uint256",
              "name": "nextDueDate",
              "type": "uint256"
            },
            {
              "internalType": "bool",
              "name": "isVerified",
              "type": "bool"
            },
            {
              "internalType": "string",
              "name": "ipfsHash",
              "type": "string"
            },
            {
              "internalType": "string",
              "name": "qrCodeHash",
              "type": "string"
            }
          ],
          "internalType": "struct VaccinationRegistry.VaccinationRecord[]",
          "name": "",
          "type": "tuple[]"
        }
      ],
      "stateMutability": "view",
      "type": "function"
    },
    {
      "inputs": [
        {
          "internalType": "uint256",
          "name": "_tokenId",
          "type": "uint256"
        }
      ],
      "name": "getVaccinationCount",
      "outputs": [
        {
          "internalType": "uint256",
          "name": "",
          "type": "uint256"
        }
      ],
      "stateMutability": "view",
      "type": "function"
    },
    {
      "inputs": [
        {
          "internalType": "uint256",
          "name": "_tokenId",
          "type": "uint256"
        },
        {
          "internalType": "string",
          "name": "_vaccineName",
          "type": "string"
        }
      ],
      "name": "hasVaccine",
      "outputs": [
        {
          "internalType": "bool",
          "name": "",
          "type": "bool"
        }
      ],
      "stateMutability": "view",
      "type": "function"
    },
    {
      "inputs": [
        {
          "internalType": "uint256",
          "name": "tokenId",
          "type": "uint256"
        }
      ],
      "name": "tokenURI",
      "outputs": [
        {
          "internalType": "string",
          "name": "",
          "type": "string"
        }
      ],
      "stateMutability": "view",
      "type": "function"
    },
    {
      "inputs": [
        {
          "internalType": "uint256",
          "name": "_tokenId",
          "type": "uint256"
        },
        {
          "internalType": "string",
          "name": "_contactInfo",
          "type": "string"
        }
      ],
      "name": "updateChildInfo",
      "outputs": [],
      "stateMutability": "nonpayable",
      "type": "function"
    }
  ],
  "bytecode": "0x60806040523480156200001157600080fd5b506040518060400160405280600e81526020017f56616363696e6174696f6e4e46540000000000000000000000000000000000008152506040518060400160405280600481526020017f564e46540000000000000000000000000000000000000000000000000000000081525081600090816200008f919062000205565b5060016200009e828262000205565b505050620000cd620000be620000d8640100000000026401000000009004565b640100000000620000dc810204565b6001600755620002d8565b3390565b60068054600160a060020a03838116600160a060020a0319831681179093556040519116919082907f8be0079c531659141344cd1fd0a4f28419497f9722a3daafe3b4186f6b6457e090600090a35050565b7f4e487b7100000000000000000000000000000000000000000000000000000000600052604160045260246000fd5b6002810460018216806200017257607f821691505b602082108103620001ac577f4e487b7100000000000000000000000000000000000000000000000000000000600052602260045260246000fd5b50919050565b601f82111562000200576000818152602081206020601f86010481016020861015620001db5750805b6020601f860104820191505b81811015620001fc57828155600101620001e7565b5050505b505050565b815167ffffffffffffffff8111156200022257620002226200012e565b6200023a816200023384546200015d565b84620001b2565b602080601f831160018114620002765760008415620002595750858301515b60028086026008870290910a6000190419821617865550620001fc565b600085815260208120601f198616915b82811015620002a75788860151825594840194600190910190840162000286565b5085821015620002c857878501516008601f88160260020a60001904191681555b5050505050600202600101905550565b61535c80620002e86000396000f3fe608060405234801561001057600080fd5b5060043610610244576000357c01000000000000000000000000000000000000000000000000000000009004806370a082311161014d578063b16c102e116100d5578063f093cf8011610099578063f093cf8014610575578063f0c8a3c014610599578063f2fde38b146105ac578063fcb2b797146105bf578063fffa9794146105e257600080fd5b8063b16c102e146104df578063b88d4fde14610500578063c3d6b57d14610513578063c87b56dd14610526578063e985e9c51461053957600080fd5b80638486f67a1161011c5780638486f67a146104735780638b43b3ff146104935780638da5cb5b146104b357806395d89b41146104c4578063a22cb465146104cc57600080fd5b806370a0823114610422578063715018a61461043557806377d3e69e1461043d5780637d9aacdb1461045057600080fd5b80632c6c2b1c116101d0578063526b44ac1161019f578063526b44ac146103a157806354a503b6146103b45780636352211e146103d45780636c8b703f146103e75780637002ce42146103fa57600080fd5b80632c6c2b1c146103485780633da42a521461035b57806341a7c55b1461037b57806342842e0e1461038e57600080fd5b80631e1f463d116102175780631e1f463d146102c65780631f3799a1146102d95780632156b5e91461030157806323b872dd146103225780632548a6da1461033557600080fd5b806301ffc9a71461024957806306fdde0314610271578063081812fc14610286578063095ea7b3146102b1575b600080fd5b61025c610257366004614348565b6105f5565b60405190151581526020015b60405180910390f35b610279610692565b60405161026891906143bc565b6102996102943660046143cf565b610724565b604051600160a060020a039091168152602001610268565b6102c46102bf366004614404565b61074b565b005b61025c6102d43660046144dd565b610887565b6102ec6102e7366004614524565b610c94565b60405161026899989796959493929190614546565b61031461030f3660046145de565b610fbe565b604051908152602001610268565b6102c46103303660046146a4565b6112e6565b610314610343366004614524565b61131a565b6102c46103563660046146e0565b61134b565b61036e61036936600461477c565b6116cc565b60405161026891906147d2565b610314610389366004614404565b611738565b6102c461039c3660046146a4565b611754565b6102c46103af3660046147e5565b61176f565b6103c76103c23660046143cf565b6118a7565b604051610268919061486d565b6102996103e23660046143cf565b611be1565b6102796103f53660046143cf565b611c49565b61040d6104083660046143cf565b611ce3565b6040516102689998979695949392919061494a565b61031461043036600461477c565b611f5f565b6102c4611ffc565b61036e61044b3660046143cf565b612010565b61025c61045e36600461477c565b600c6020526000908152604090205460ff1681565b61048661048136600461477c565b612098565b60405161026891906149d1565b6104a66104a13660046143cf565b6122c4565b6040516102689190614a4c565b600654600160a060020a0316610299565b61027961266d565b6102c46104da366004614b69565b61267c565b6104f26104ed3660046143cf565b61268b565b604051610268929190614ba5565b6102c461050e366004614c1a565b612cb4565b6102c46105213660046144dd565b612cef565b6102796105343660046143cf565b612d6e565b61025c610547366004614c96565b600160a060020a03918216600090815260056020908152604080832093909416825291909152205460ff1690565b61058861058336600461477c565b612e2c565b604051610268959493929190614cc9565b6103146105a73660046143cf565b612ff6565b6102c46105ba36600461477c565b613033565b6105d26105cd3660046143cf565b6130c6565b6040516102689493929190614d17565b6102c46105f0366004614b69565b613820565b6000600160e060020a031982167f80ac58cd0000000000000000000000000000000000000000000000000000000014806106585750600160e060020a031982167f5b5e139f00000000000000000000000000000000000000000000000000000000145b8061068c57507f01ffc9a700000000000000000000000000000000000000000000000000000000600160e060020a03198316145b92915050565b6060600080546106a190614d55565b80601f01602080910402602001604051908101604052809291908181526020018280546106cd90614d55565b801561071a5780601f106106ef5761010080835404028352916020019161071a565b820191906000526020600020905b8154815290600101906020018083116106fd57829003601f168201915b5050505050905090565b600061072f82613906565b50600090815260046020526040902054600160a060020a031690565b600061075682611be1565b905080600160a060020a031683600160a060020a0316036107e75760405160e560020a62461bcd02815260206004820152602160248201527f4552433732313a20617070726f76616c20746f2063757272656e74206f776e6560448201527f720000000000000000000000000000000000000000000000000000000000000060648201526084015b60405180910390fd5b33600160a060020a038216148061080357506108038133610547565b6108785760405160e560020a62461bcd02815260206004820152603d60248201527f4552433732313a20617070726f76652063616c6c6572206973206e6f7420746f60448201527f6b656e206f776e6572206f7220617070726f76656420666f7220616c6c00000060648201526084016107de565b610882838361395e565b505050565b6000610892836139d9565b6108b15760405160e560020a62461bcd0281526004016107de90614d92565b6000838152600a6020908152604080832080548251818502810185019093528083529192909190849084015b82821015610c2857838290600052602060002090600902016040518061012001604052908160008201805461091190614d55565b80601f016020809104026020016040519081016040528092919081815260200182805461093d90614d55565b801561098a5780601f1061095f5761010080835404028352916020019161098a565b820191906000526020600020905b81548152906001019060200180831161096d57829003601f168201915b50505050508152602001600182015481526020016002820180546109ad90614d55565b80601f01602080910402602001604051908101604052809291908181526020018280546109d990614d55565b8015610a265780601f106109fb57610100808354040283529160200191610a26565b820191906000526020600020905b815481529060010190602001808311610a0957829003601f168201915b50505091835250506003820154600160a060020a03166020820152600482018054604090920191610a5690614d55565b80601f0160208091040260200160405190810160405280929190818152602001828054610a8290614d55565b8015610acf5780601f10610aa457610100808354040283529160200191610acf565b820191906000526020600020905b815481529060010190602001808311610ab257829003601f168201915b505050918352505060058201546020820152600682015460ff1615156040820152600782018054606090920191610b0590614d55565b80601f0160208091040260200160405190810160405280929190818152602001828054610b3190614d55565b8015610b7e5780601f10610b5357610100808354040283529160200191610b7e565b820191906000526020600020905b815481529060010190602001808311610b6157829003601f168201915b50505050508152602001600882018054610b9790614d55565b80601f0160208091040260200160405190810160405280929190818152602001828054610bc390614d55565b8015610c105780601f10610be557610100808354040283529160200191610c10565b820191906000526020600020905b815481529060010190602001808311610bf357829003601f168201915b505050505081525050815260200190600101906108dd565b50505050905060005b8151811015610c89578380519060200120828281518110610c5457610c54614dc9565b6020026020010151600001518051906020012003610c775760019250505061068c565b80610c8181614dfb565b915050610c31565b506000949350505050565b600a6020528160005260406000208181548110610cb057600080fd5b906000526020600020906009020160009150915050806000018054610cd490614d55565b80601f0160208091040260200160405190810160405280929190818152602001828054610d0090614d55565b8015610d4d5780601f10610d2257610100808354040283529160200191610d4d565b820191906000526020600020905b815481529060010190602001808311610d3057829003601f168201915b505050505090806001015490806002018054610d6890614d55565b80601f0160208091040260200160405190810160405280929190818152602001828054610d9490614d55565b8015610de15780601f10610db657610100808354040283529160200191610de1565b820191906000526020600020905b815481529060010190602001808311610dc457829003601f168201915b50505060038401546004850180549495600160a060020a03909216949193509150610e0b90614d55565b80601f0160208091040260200160405190810160405280929190818152602001828054610e3790614d55565b8015610e845780601f10610e5957610100808354040283529160200191610e84565b820191906000526020600020905b815481529060010190602001808311610e6757829003601f168201915b50505050600583015460068401546007850180549495929460ff909216935090610ead90614d55565b80601f0160208091040260200160405190810160405280929190818152602001828054610ed990614d55565b8015610f265780601f10610efb57610100808354040283529160200191610f26565b820191906000526020600020905b815481529060010190602001808311610f0957829003601f168201915b505050505090806008018054610f3b90614d55565b80601f0160208091040260200160405190810160405280929190818152602001828054610f6790614d55565b8015610fb45780601f10610f8957610100808354040283529160200191610fb4565b820191906000526020600020905b815481529060010190602001808311610f9757829003601f168201915b5050505050905089565b336000908152600c602052604081205460ff166110205760405160e560020a62461bcd02815260206004820152601760248201527f4e6f7420617574686f72697a656420686f73706974616c00000000000000000060448201526064016107de565b600160a060020a0383166110795760405160e560020a62461bcd02815260206004820152601660248201527f496e76616c696420706172656e7420616464726573730000000000000000000060448201526064016107de565b611087600880546001019055565b600061109260085490565b905061109e84826139f6565b604080516101208101825289815260208082018a905281830189905260608201889052600160a060020a03871660808301523360a083018190526000908152600b90915291909120805460c0830191906110f790614d55565b80601f016020809104026020016040519081016040528092919081815260200182805461112390614d55565b80156111705780601f1061114557610100808354040283529160200191611170565b820191906000526020600020905b81548152906001019060200180831161115357829003601f168201915b50505091835250506001602080830191909152426040928301526000848152600990915220815181906111a39082614e62565b5060208201516001820155604082015160028201906111c29082614e62565b50606082015160038201906111d79082614e62565b506080820151600482018054600160a060020a0392831673ffffffffffffffffffffffffffffffffffffffff199182161790915560a084015160058401805491909316911617905560c082015160068201906112339082614e62565b5060e082015160078201805460ff1916911515919091179055610100909101516008909101556000818152600d602052604090206112718482614e62565b50600160a060020a0384166000818152600e60209081526040808320805460018101825590845291909220018390555133919083907fd04c16228c25cae8ccc9a97723e4e69cc7db90061ef350d4a3acffc0185a088a906112d3908d906143bc565b60405180910390a4979650505050505050565b6112f03382613b87565b61130f5760405160e560020a62461bcd0281526004016107de90614f28565b610882838383613c06565b600f602052816000526040600020818154811061133657600080fd5b90600052602060002001600091509150505481565b336000908152600c602052604090205460ff166113ad5760405160e560020a62461bcd02815260206004820152601760248201527f4e6f7420617574686f72697a656420686f73706974616c00000000000000000060448201526064016107de565b6113b6856139d9565b6113d55760405160e560020a62461bcd0281526004016107de90614d92565b60006113e2868642613da6565b90506000604051806101200160405280878152602001428152602001600b600033600160a060020a0316600160a060020a03168152602001908152602001600020600001805461143190614d55565b80601f016020809104026020016040519081016040528092919081815260200182805461145d90614d55565b80156114aa5780601f1061147f576101008083540402835291602001916114aa565b820191906000526020600020905b81548152906001019060200180831161148d57829003601f168201915b50505091835250503360208083019190915260408083018990526060830188905260016080840181905260a0840188905260c090930186905260008b8152600a835290812080549384018155815220825192935083926009909202019081906115139082614e62565b5060208201516001820155604082015160028201906115329082614e62565b50606082015160038201805473ffffffffffffffffffffffffffffffffffffffff1916600160a060020a039092169190911790556080820151600482019061157a9082614e62565b5060a0820151600582015560c082015160068201805460ff191691151591909117905560e082015160078201906115b19082614e62565b5061010082015160088201906115c79082614e62565b50505042841115611631576000878152600f60209081526040808320805460018101825590845291909220018590555187907f8bfd8a6405d570bbc338c84d2122d653bebd553445d09e362ecf5f7bba0aea54906116289089908890614f85565b60405180910390a25b867ffff13ac210f36bf109853b425ad76c57a38c698f0e080ecb5928520e0ecf30d287428560405161166593929190614fa7565b60405180910390a26000878152600a602052604090205487907f2de7d91590e945f5996aae00df326c645594f33cc33292cb26c04096c3009e6c906116ac90600190614fdc565b846040516116bb929190614fef565b60405180910390a250505050505050565b600160a060020a0381166000908152600e602090815260409182902080548351818402810184019094528084526060939283018282801561172c57602002820191906000526020600020905b815481526020019060010190808311611718575b50505050509050919050565b600e602052816000526040600020818154811061133657600080fd5b61088283838360405180602001604052806000815250612cb4565b336000908152600b602052604090206003015460ff16156117d55760405160e560020a62461bcd02815260206004820152601b60248201527f486f73706974616c20616c72656164792072656769737465726564000000000060448201526064016107de565b6040805160a0810182528481526020808201859052818301849052600060608301819052426080840152338152600b90915291909120815181906118199082614e62565b506020820151600182019061182e9082614e62565b50604082015160028201906118439082614e62565b50606082015160038201805460ff191691151591909117905560809091015160049091015560405133907f72cefccb74b7edacb21023a72b39a2cecb1123ba70d1eea03d3509d046b941c29061189a9086906143bc565b60405180910390a2505050565b61190a604051806101200160405280606081526020016000815260200160608152602001606081526020016000600160a060020a031681526020016000600160a060020a0316815260200160608152602001600015158152602001600081525090565b611913826139d9565b6119325760405160e560020a62461bcd0281526004016107de90614d92565b600082815260096020526040908190208151610120810190925280548290829061195b90614d55565b80601f016020809104026020016040519081016040528092919081815260200182805461198790614d55565b80156119d45780601f106119a9576101008083540402835291602001916119d4565b820191906000526020600020905b8154815290600101906020018083116119b757829003601f168201915b50505050508152602001600182015481526020016002820180546119f790614d55565b80601f0160208091040260200160405190810160405280929190818152602001828054611a2390614d55565b8015611a705780601f10611a4557610100808354040283529160200191611a70565b820191906000526020600020905b815481529060010190602001808311611a5357829003601f168201915b50505050508152602001600382018054611a8990614d55565b80601f0160208091040260200160405190810160405280929190818152602001828054611ab590614d55565b8015611b025780601f10611ad757610100808354040283529160200191611b02565b820191906000526020600020905b815481529060010190602001808311611ae557829003601f168201915b50505091835250506004820154600160a060020a0390811660208301526005830154166040820152600682018054606090920191611b3f90614d55565b80601f0160208091040260200160405190810160405280929190818152602001828054611b6b90614d55565b8015611bb85780601f10611b8d57610100808354040283529160200191611bb8565b820191906000526020600020905b815481529060010190602001808311611b9b57829003601f168201915b5050509183525050600782015460ff161515602082015260089091015460409091015292915050565b600081815260026020526040812054600160a060020a03168061068c5760405160e560020a62461bcd02815260206004820152601860248201527f4552433732313a20696e76616c696420746f6b656e204944000000000000000060448201526064016107de565b600d6020526000908152604090208054611c6290614d55565b80601f0160208091040260200160405190810160405280929190818152602001828054611c8e90614d55565b8015611cdb5780601f10611cb057610100808354040283529160200191611cdb565b820191906000526020600020905b815481529060010190602001808311611cbe57829003601f168201915b505050505081565b600960205260009081526040902080548190611cfe90614d55565b80601f0160208091040260200160405190810160405280929190818152602001828054611d2a90614d55565b8015611d775780601f10611d4c57610100808354040283529160200191611d77565b820191906000526020600020905b815481529060010190602001808311611d5a57829003601f168201915b505050505090806001015490806002018054611d9290614d55565b80601f0160208091040260200160405190810160405280929190818152602001828054611dbe90614d55565b8015611e0b5780601f10611de057610100808354040283529160200191611e0b565b820191906000526020600020905b815481529060010190602001808311611dee57829003601f168201915b505050505090806003018054611e2090614d55565b80601f0160208091040260200160405190810160405280929190818152602001828054611e4c90614d55565b8015611e995780601f10611e6e57610100808354040283529160200191611e99565b820191906000526020600020905b815481529060010190602001808311611e7c57829003601f168201915b505050600484015460058501546006860180549596600160a060020a0393841696929093169450919250611ecc90614d55565b80601f0160208091040260200160405190810160405280929190818152602001828054611ef890614d55565b8015611f455780601f10611f1a57610100808354040283529160200191611f45565b820191906000526020600020905b815481529060010190602001808311611f2857829003601f168201915b505050506007830154600890930154919260ff1691905089565b6000600160a060020a038216611fe05760405160e560020a62461bcd02815260206004820152602960248201527f4552433732313a2061646472657373207a65726f206973206e6f74206120766160448201527f6c6964206f776e6572000000000000000000000000000000000000000000000060648201526084016107de565b50600160a060020a031660009081526003602052604090205490565b612004613de5565b61200e6000613e42565b565b606061201b826139d9565b61203a5760405160e560020a62461bcd0281526004016107de90614d92565b6000828152600f60209081526040918290208054835181840281018401909452808452909183018282801561172c57602002820191906000526020600020908154815260200190600101908083116117185750505050509050919050565b6120cc6040518060a00160405280606081526020016060815260200160608152602001600015158152602001600081525090565b600160a060020a0382166000908152600b602052604090819020815160a081019092528054829082906120fe90614d55565b80601f016020809104026020016040519081016040528092919081815260200182805461212a90614d55565b80156121775780601f1061214c57610100808354040283529160200191612177565b820191906000526020600020905b81548152906001019060200180831161215a57829003601f168201915b5050505050815260200160018201805461219090614d55565b80601f01602080910402602001604051908101604052809291908181526020018280546121bc90614d55565b80156122095780601f106121de57610100808354040283529160200191612209565b820191906000526020600020905b8154815290600101906020018083116121ec57829003601f168201915b5050505050815260200160028201805461222290614d55565b80601f016020809104026020016040519081016040528092919081815260200182805461224e90614d55565b801561229b5780601f106122705761010080835404028352916020019161229b565b820191906000526020600020905b81548152906001019060200180831161227e57829003601f168201915b5050509183525050600382015460ff161515602082015260049091015460409091015292915050565b60606122cf826139d9565b6122ee5760405160e560020a62461bcd0281526004016107de90614d92565b6000828152600a6020908152604080832080548251818502810185019093528083529193909284015b8282101561266257838290600052602060002090600902016040518061012001604052908160008201805461234b90614d55565b80601f016020809104026020016040519081016040528092919081815260200182805461237790614d55565b80156123c45780601f10612399576101008083540402835291602001916123c4565b820191906000526020600020905b8154815290600101906020018083116123a757829003601f168201915b50505050508152602001600182015481526020016002820180546123e790614d55565b80601f016020809104026020016040519081016040528092919081815260200182805461241390614d55565b80156124605780601f1061243557610100808354040283529160200191612460565b820191906000526020600020905b81548152906001019060200180831161244357829003601f168201915b50505091835250506003820154600160a060020a0316602082015260048201805460409092019161249090614d55565b80601f01602080910402602001604051908101604052809291908181526020018280546124bc90614d55565b80156125095780601f106124de57610100808354040283529160200191612509565b820191906000526020600020905b8154815290600101906020018083116124ec57829003601f168201915b505050918352505060058201546020820152600682015460ff161515604082015260078201805460609092019161253f90614d55565b80601f016020809104026020016040519081016040528092919081815260200182805461256b90614d55565b80156125b85780601f1061258d576101008083540402835291602001916125b8565b820191906000526020600020905b81548152906001019060200180831161259b57829003601f168201915b505050505081526020016008820180546125d190614d55565b80601f01602080910402602001604051908101604052809291908181526020018280546125fd90614d55565b801561264a5780601f1061261f5761010080835404028352916020019161264a565b820191906000526020600020905b81548152906001019060200180831161262d57829003601f168201915b50505050508152505081526020019060010190612317565b505050509050919050565b6060600180546106a190614d55565b612687338383613ea1565b5050565b606080612697836139d9565b6126b65760405160e560020a62461bcd0281526004016107de90614d92565b6000838152600f602090815260408083208054825181850281018501909352808352919290919083018282801561270c57602002820191906000526020600020905b8154815260200190600101908083116126f8575b505050505090506000805b8251811015612792574283828151811061273357612733614dc9565b602002602001015111801561276d57506127504262278d00615008565b83828151811061276257612762614dc9565b602002602001015111155b15612780578161277c81614dfb565b9250505b8061278a81614dfb565b915050612717565b508067ffffffffffffffff8111156127ac576127ac61442e565b6040519080825280602002602001820160405280156127df57816020015b60608152602001906001900390816127ca5790505b5093508067ffffffffffffffff8111156127fb576127fb61442e565b604051908082528060200260200182016040528015612824578160200160208202803683370190505b509250600080600a6000888152602001908152602001600020805480602002602001604051908101604052809291908181526020016000905b82821015612ba857838290600052602060002090600902016040518061012001604052908160008201805461289190614d55565b80601f01602080910402602001604051908101604052809291908181526020018280546128bd90614d55565b801561290a5780601f106128df5761010080835404028352916020019161290a565b820191906000526020600020905b8154815290600101906020018083116128ed57829003601f168201915b505050505081526020016001820154815260200160028201805461292d90614d55565b80601f016020809104026020016040519081016040528092919081815260200182805461295990614d55565b80156129a65780601f1061297b576101008083540402835291602001916129a6565b820191906000526020600020905b81548152906001019060200180831161298957829003601f168201915b50505091835250506003820154600160a060020a031660208201526004820180546040909201916129d690614d55565b80601f0160208091040260200160405190810160405280929190818152602001828054612a0290614d55565b8015612a4f5780601f10612a2457610100808354040283529160200191612a4f565b820191906000526020600020905b815481529060010190602001808311612a3257829003601f168201915b505050918352505060058201546020820152600682015460ff1615156040820152600782018054606090920191612a8590614d55565b80601f0160208091040260200160405190810160405280929190818152602001828054612ab190614d55565b8015612afe5780601f10612ad357610100808354040283529160200191612afe565b820191906000526020600020905b815481529060010190602001808311612ae157829003601f168201915b50505050508152602001600882018054612b1790614d55565b80601f0160208091040260200160405190810160405280929190818152602001828054612b4390614d55565b8015612b905780601f10612b6557610100808354040283529160200191612b90565b820191906000526020600020905b815481529060010190602001808311612b7357829003601f168201915b5050505050815250508152602001906001019061285d565b50505050905060005b8151811015612caa5742828281518110612bcd57612bcd614dc9565b602002602001015160a00151118015612c0f5750612bee4262278d00615008565b828281518110612c0057612c00614dc9565b602002602001015160a0015111155b15612c9857818181518110612c2657612c26614dc9565b602002602001015160000151878481518110612c4457612c44614dc9565b6020026020010181905250818181518110612c6157612c61614dc9565b602002602001015160a00151868481518110612c7f57612c7f614dc9565b602090810291909101015282612c9481614dfb565b9350505b80612ca281614dfb565b915050612bb1565b5050505050915091565b612cbe3383613b87565b612cdd5760405160e560020a62461bcd0281526004016107de90614f28565b612ce984848484613f72565b50505050565b8133612cfa82611be1565b600160a060020a031614612d535760405160e560020a62461bcd02815260206004820152600f60248201527f4e6f7420746f6b656e206f776e6572000000000000000000000000000000000060448201526064016107de565b6000838152600960205260409020600301612ce98382614e62565b6060612d79826139d9565b612d985760405160e560020a62461bcd0281526004016107de90614d92565b6000828152600d602052604090208054612db190614d55565b80601f0160208091040260200160405190810160405280929190818152602001828054612ddd90614d55565b801561172c5780601f10612dff5761010080835404028352916020019161172c565b820191906000526020600020905b815481529060010190602001808311612e0d5750939695505050505050565b600b60205260009081526040902080548190612e4790614d55565b80601f0160208091040260200160405190810160405280929190818152602001828054612e7390614d55565b8015612ec05780601f10612e9557610100808354040283529160200191612ec0565b820191906000526020600020905b815481529060010190602001808311612ea357829003601f168201915b505050505090806001018054612ed590614d55565b80601f0160208091040260200160405190810160405280929190818152602001828054612f0190614d55565b8015612f4e5780601f10612f2357610100808354040283529160200191612f4e565b820191906000526020600020905b815481529060010190602001808311612f3157829003601f168201915b505050505090806002018054612f6390614d55565b80601f0160208091040260200160405190810160405280929190818152602001828054612f8f90614d55565b8015612fdc5780601f10612fb157610100808354040283529160200191612fdc565b820191906000526020600020905b815481529060010190602001808311612fbf57829003601f168201915b505050506003830154600490930154919260ff1691905085565b6000613001826139d9565b6130205760405160e560020a62461bcd0281526004016107de90614d92565b506000908152600a602052604090205490565b61303b613de5565b600160a060020a0381166130ba5760405160e560020a62461bcd02815260206004820152602660248201527f4f776e61626c653a206e6577206f776e657220697320746865207a65726f206160448201527f646472657373000000000000000000000000000000000000000000000000000060648201526084016107de565b6130c381613e42565b50565b6060806000806130d5856139d9565b6130f45760405160e560020a62461bcd0281526004016107de90614d92565b6000858152600960205260408082208151610120810190925280548290829061311c90614d55565b80601f016020809104026020016040519081016040528092919081815260200182805461314890614d55565b80156131955780601f1061316a57610100808354040283529160200191613195565b820191906000526020600020905b81548152906001019060200180831161317857829003601f168201915b50505050508152602001600182015481526020016002820180546131b890614d55565b80601f01602080910402602001604051908101604052809291908181526020018280546131e490614d55565b80156132315780601f1061320657610100808354040283529160200191613231565b820191906000526020600020905b81548152906001019060200180831161321457829003601f168201915b5050505050815260200160038201805461324a90614d55565b80601f016020809104026020016040519081016040528092919081815260200182805461327690614d55565b80156132c35780601f10613298576101008083540402835291602001916132c3565b820191906000526020600020905b8154815290600101906020018083116132a657829003601f168201915b50505091835250506004820154600160a060020a039081166020830152600583015416604082015260068201805460609092019161330090614d55565b80601f016020809104026020016040519081016040528092919081815260200182805461332c90614d55565b80156133795780601f1061334e57610100808354040283529160200191613379565b820191906000526020600020905b81548152906001019060200180831161335c57829003601f168201915b5050509183525050600782015460ff1615156020808301919091526008909201546040918201526000898152600a8352818120805483518186028101860190945280845294955090939192909190849084015b8282101561371757838290600052602060002090600902016040518061012001604052908160008201805461340090614d55565b80601f016020809104026020016040519081016040528092919081815260200182805461342c90614d55565b80156134795780601f1061344e57610100808354040283529160200191613479565b820191906000526020600020905b81548152906001019060200180831161345c57829003601f168201915b505050505081526020016001820154815260200160028201805461349c90614d55565b80601f01602080910402602001604051908101604052809291908181526020018280546134c890614d55565b80156135155780601f106134ea57610100808354040283529160200191613515565b820191906000526020600020905b8154815290600101906020018083116134f857829003601f168201915b50505091835250506003820154600160a060020a0316602082015260048201805460409092019161354590614d55565b80601f016020809104026020016040519081016040528092919081815260200182805461357190614d55565b80156135be5780601f10613593576101008083540402835291602001916135be565b820191906000526020600020905b8154815290600101906020018083116135a157829003601f168201915b505050918352505060058201546020820152600682015460ff16151560408201526007820180546060909201916135f490614d55565b80601f016020809104026020016040519081016040528092919081815260200182805461362090614d55565b801561366d5780601f106136425761010080835404028352916020019161366d565b820191906000526020600020905b81548152906001019060200180831161365057829003601f168201915b5050505050815260200160088201805461368690614d55565b80601f01602080910402602001604051908101604052809291908181526020018280546136b290614d55565b80156136ff5780601f106136d4576101008083540402835291602001916136ff565b820191906000526020600020905b8154815290600101906020018083116136e257829003601f168201915b505050505081525050815260200190600101906133cc565b505050509050816000015194508051935060006201518083602001514261373e9190614fdc565b613748919061501b565b9050600061375582613fa8565b905080861015945061376689614009565b8761377088614009565b876137b0576040518060400160405280600781526020017f50454e44494e47000000000000000000000000000000000000000000000000008152506137e7565b6040518060400160405280600a81526020017f55505f544f5f44415445000000000000000000000000000000000000000000008152505b6137f042614009565b604051602001613804959493929190615040565b6040516020818303038152906040529750505050509193509193565b613828613de5565b600160a060020a0382166000908152600b60205260409020600401546138935760405160e560020a62461bcd02815260206004820152601760248201527f486f73706974616c206e6f74207265676973746572656400000000000000000060448201526064016107de565b600160a060020a0382166000818152600c60209081526040808320805486151560ff199182168117909255600b84529382902060030180549094168117909355519182527f5f02d7f24c3f29ae316b95dec9c04e5c8f3d3c8cdc07cad472c4b716c57b87b7910160405180910390a25050565b61390f816139d9565b6130c35760405160e560020a62461bcd02815260206004820152601860248201527f4552433732313a20696e76616c696420746f6b656e204944000000000000000060448201526064016107de565b6000818152600460205260409020805473ffffffffffffffffffffffffffffffffffffffff1916600160a060020a03841690811790915581906139a082611be1565b600160a060020a03167f8c5be1e5ebec7d5bd14f71427d1e84f3dd0314c0f7b2291e5b200ac8c7c3b92560405160405180910390a45050565b600090815260026020526040902054600160a060020a0316151590565b600160a060020a038216613a4f5760405160e560020a62461bcd02815260206004820181905260248201527f4552433732313a206d696e7420746f20746865207a65726f206164647265737360448201526064016107de565b613a58816139d9565b15613aa85760405160e560020a62461bcd02815260206004820152601c60248201527f4552433732313a20746f6b656e20616c7265616479206d696e7465640000000060448201526064016107de565b613ab66000838360016140a9565b613abf816139d9565b15613b0f5760405160e560020a62461bcd02815260206004820152601c60248201527f4552433732313a20746f6b656e20616c7265616479206d696e7465640000000060448201526064016107de565b600160a060020a0382166000818152600360209081526040808320805460010190558483526002909152808220805473ffffffffffffffffffffffffffffffffffffffff19168417905551839291907fddf252ad1be2c89b69c2b068fc378daa952ba7f163c4a11628f55a4df523b3ef908290a45050565b600080613b9383611be1565b905080600160a060020a031684600160a060020a03161480613bda5750600160a060020a0380821660009081526005602090815260408083209388168352929052205460ff165b80613bfe575083600160a060020a0316613bf384610724565b600160a060020a0316145b949350505050565b82600160a060020a0316613c1982611be1565b600160a060020a031614613c425760405160e560020a62461bcd0281526004016107de9061517e565b600160a060020a038216613cc05760405160e560020a62461bcd028152602060048201526024808201527f4552433732313a207472616e7366657220746f20746865207a65726f2061646460448201527f726573730000000000000000000000000000000000000000000000000000000060648201526084016107de565b613ccd83838360016140a9565b82600160a060020a0316613ce082611be1565b600160a060020a031614613d095760405160e560020a62461bcd0281526004016107de9061517e565b6000818152600460209081526040808320805473ffffffffffffffffffffffffffffffffffffffff19908116909155600160a060020a0387811680865260038552838620805460001901905590871680865283862080546001019055868652600290945282852080549092168417909155905184937fddf252ad1be2c89b69c2b068fc378daa952ba7f163c4a11628f55a4df523b3ef91a4505050565b6060613db184614009565b83613dbb84614009565b604051602001613dcd939291906151db565b60405160208183030381529060405290509392505050565b600654600160a060020a0316331461200e5760405160e560020a62461bcd02815260206004820181905260248201527f4f776e61626c653a2063616c6c6572206973206e6f7420746865206f776e657260448201526064016107de565b60068054600160a060020a0383811673ffffffffffffffffffffffffffffffffffffffff19831681179093556040519116919082907f8be0079c531659141344cd1fd0a4f28419497f9722a3daafe3b4186f6b6457e090600090a35050565b81600160a060020a031683600160a060020a031603613f055760405160e560020a62461bcd02815260206004820152601960248201527f4552433732313a20617070726f766520746f2063616c6c65720000000000000060448201526064016107de565b600160a060020a03838116600081815260056020908152604080832094871680845294825291829020805460ff191686151590811790915591519182527f17307eab39ab6107e8899845ad3d59bd9653f200f220920489ca2b5937696c31910160405180910390a3505050565b613f7d848484613c06565b613f898484848461411a565b612ce95760405160e560020a62461bcd0281526004016107de9061527a565b6000602a821015613fbb57506003919050565b6054821015613fcc57506006919050565b607e821015613fdd57506009919050565b61016d821015613fef5750600c919050565b6102da8210156140015750600f919050565b506012919050565b6060600061401683614250565b600101905060008167ffffffffffffffff8111156140365761403661442e565b6040519080825280601f01601f191660200182016040528015614060576020820181803683370190505b5090508181016020015b600019017f3031323334353637383961626364656600000000000000000000000000000000600a86061a8153600a850494508461406a57509392505050565b600160a060020a03841615806140c65750600160a060020a038316155b6141155760405160e560020a62461bcd02815260206004820152601f60248201527f536f756c626f756e643a205472616e73666572206e6f7420616c6c6f7765640060448201526064016107de565b612ce9565b6000600160a060020a0384163b15614245576040517f150b7a02000000000000000000000000000000000000000000000000000000008152600160a060020a0385169063150b7a02906141779033908990889088906004016152d7565b6020604051808303816000875af19250505080156141b2575060408051601f3d908101601f191682019092526141af91810190615309565b60015b614212573d8080156141e0576040519150601f19603f3d011682016040523d82523d6000602084013e6141e5565b606091505b50805160000361420a5760405160e560020a62461bcd0281526004016107de9061527a565b805181602001fd5b600160e060020a0319167f150b7a0200000000000000000000000000000000000000000000000000000000149050613bfe565b506001949350505050565b6000807a184f03e93ff9f4daa797ed6e38ed64bf6a1f0100000000000000008310614299577a184f03e93ff9f4daa797ed6e38ed64bf6a1f010000000000000000830492506040015b6d04ee2d6d415b85acef810000000083106142c5576d04ee2d6d415b85acef8100000000830492506020015b662386f26fc1000083106142e357662386f26fc10000830492506010015b6305f5e10083106142fb576305f5e100830492506008015b612710831061430f57612710830492506004015b60648310614321576064830492506002015b600a831061068c5760010192915050565b600160e060020a0319811681146130c357600080fd5b60006020828403121561435a57600080fd5b813561436581614332565b9392505050565b60005b8381101561438757818101518382015260200161436f565b50506000910152565b600081518084526143a881602086016020860161436c565b601f01601f19169290920160200192915050565b6020815260006143656020830184614390565b6000602082840312156143e157600080fd5b5035919050565b8035600160a060020a03811681146143ff57600080fd5b919050565b6000806040838503121561441757600080fd5b614420836143e8565b946020939093013593505050565b60e060020a634e487b7102600052604160045260246000fd5b600067ffffffffffffffff808411156144625761446261442e565b604051601f8501601f19908116603f0116810190828211818310171561448a5761448a61442e565b816040528093508581528686860111156144a357600080fd5b858560208301376000602087830101525050509392505050565b600082601f8301126144ce57600080fd5b61436583833560208501614447565b600080604083850312156144f057600080fd5b82359150602083013567ffffffffffffffff81111561450e57600080fd5b61451a858286016144bd565b9150509250929050565b6000806040838503121561453757600080fd5b50508035926020909101359150565b600061012080835261455a8184018d614390565b90508a60208401528281036040840152614574818b614390565b9050600160a060020a038916606084015282810360808401526145978189614390565b90508660a084015285151560c084015282810360e08401526145b98186614390565b90508281036101008401526145ce8185614390565b9c9b505050505050505050505050565b60008060008060008060c087890312156145f757600080fd5b863567ffffffffffffffff8082111561460f57600080fd5b61461b8a838b016144bd565b975060208901359650604089013591508082111561463857600080fd5b6146448a838b016144bd565b9550606089013591508082111561465a57600080fd5b6146668a838b016144bd565b945061467460808a016143e8565b935060a089013591508082111561468a57600080fd5b5061469789828a016144bd565b9150509295509295509295565b6000806000606084860312156146b957600080fd5b6146c2846143e8565b92506146d0602085016143e8565b9150604084013590509250925092565b600080600080600060a086880312156146f857600080fd5b85359450602086013567ffffffffffffffff8082111561471757600080fd5b61472389838a016144bd565b9550604088013591508082111561473957600080fd5b61474589838a016144bd565b945060608801359350608088013591508082111561476257600080fd5b5061476f888289016144bd565b9150509295509295909350565b60006020828403121561478e57600080fd5b614365826143e8565b600081518084526020808501945080840160005b838110156147c7578151875295820195908201906001016147ab565b509495945050505050565b6020815260006143656020830184614797565b6000806000606084860312156147fa57600080fd5b833567ffffffffffffffff8082111561481257600080fd5b61481e878388016144bd565b9450602086013591508082111561483457600080fd5b614840878388016144bd565b9350604086013591508082111561485657600080fd5b50614863868287016144bd565b9150509250925092565b602081526000825161012080602085015261488c610140850183614390565b9150602085015160408501526040850151601f19808685030160608701526148b48483614390565b935060608701519150808685030160808701526148d18483614390565b9350608087015191506148ef60a0870183600160a060020a03169052565b60a0870151600160a060020a03811660c0880152915060c08701519150808685030160e0870152506149218382614390565b92505060e08501516101006149398187018315159052565b959095015193019290925250919050565b600061012080835261495e8184018d614390565b90508a60208401528281036040840152614978818b614390565b9050828103606084015261498c818a614390565b600160a060020a038981166080860152881660a085015283810360c085015290506149b78187614390565b94151560e084015250506101000152979650505050505050565b602081526000825160a060208401526149ed60c0840182614390565b90506020840151601f1980858403016040860152614a0b8383614390565b9250604086015191508085840301606086015250614a298282614390565b915050606084015115156080840152608084015160a08401528091505092915050565b60208082528251828201819052600091906040908185019080840286018301878501865b83811015614b5b57603f1989840301855281516101208151818652614a9782870182614390565b91505088820151898601528782015185820389870152614ab78282614390565b915050606080830151614ad482880182600160a060020a03169052565b505060808083015186830382880152614aed8382614390565b9250505060a080830151818701525060c080830151614b0f8288018215159052565b505060e08083015186830382880152614b288382614390565b925050506101008083015192508582038187015250614b478183614390565b968901969450505090860190600101614a70565b509098975050505050505050565b60008060408385031215614b7c57600080fd5b614b85836143e8565b915060208301358015158114614b9a57600080fd5b809150509250929050565b6000604082016040835280855180835260608501915060209250606083820286010183880160005b83811015614bfb57605f19888403018552614be9838351614390565b94860194925090850190600101614bcd565b505085810384870152614c0e8188614797565b98975050505050505050565b60008060008060808587031215614c3057600080fd5b614c39856143e8565b9350614c47602086016143e8565b925060408501359150606085013567ffffffffffffffff811115614c6a57600080fd5b8501601f81018713614c7b57600080fd5b614c8a87823560208401614447565b91505092959194509250565b60008060408385031215614ca957600080fd5b614cb2836143e8565b9150614cc0602084016143e8565b90509250929050565b60a081526000614cdc60a0830188614390565b8281036020840152614cee8188614390565b90508281036040840152614d028187614390565b94151560608401525050608001529392505050565b608081526000614d2a6080830187614390565b8281036020840152614d3c8187614390565b6040840195909552505090151560609091015292915050565b600281046001821680614d6957607f821691505b602082108103614d8c5760e060020a634e487b7102600052602260045260246000fd5b50919050565b60208082526014908201527f546f6b656e20646f6573206e6f74206578697374000000000000000000000000604082015260600190565b60e060020a634e487b7102600052603260045260246000fd5b60e060020a634e487b7102600052601160045260246000fd5b600060018201614e0d57614e0d614de2565b5060010190565b601f821115610882576000818152602081206020601f86010481016020861015614e3b5750805b6020601f860104820191505b81811015614e5a57828155600101614e47565b505050505050565b815167ffffffffffffffff811115614e7c57614e7c61442e565b614e9081614e8a8454614d55565b84614e14565b602080601f831160018114614ec95760008415614ead5750858301515b60028086026008870290910a6000190419821617865550614e5a565b600085815260208120601f198616915b82811015614ef857888601518255948401946001909101908401614ed9565b5085821015614f1857878501516008601f88160260020a60001904191681555b5050505050600202600101905550565b6020808252602d908201527f4552433732313a2063616c6c6572206973206e6f7420746f6b656e206f776e6560408201527f72206f7220617070726f76656400000000000000000000000000000000000000606082015260800190565b604081526000614f986040830185614390565b90508260208301529392505050565b606081526000614fba6060830186614390565b8460208401528281036040840152614fd28185614390565b9695505050505050565b8181038181111561068c5761068c614de2565b828152604060208201526000613bfe6040830184614390565b8082018082111561068c5761068c614de2565b60008261503b5760e060020a634e487b7102600052601260045260246000fd5b500490565b7f4348494c445f49443a0000000000000000000000000000000000000000000000815260008651615078816009850160208b0161436c565b7f7c4e414d453a000000000000000000000000000000000000000000000000000060099184019182015286516150b581600f840160208b0161436c565b7f7c56414343494e45533a00000000000000000000000000000000000000000000600f929091019182015285516150f3816019840160208a0161436c565b7f7c5354415455533a00000000000000000000000000000000000000000000000060199290910191820152845161513181602184016020890161436c565b7f7c56455249464945443a0000000000000000000000000000000000000000000060219290910191820152835161516f81602b84016020880161436c565b01602b01979650505050505050565b60208082526025908201527f4552433732313a207472616e736665722066726f6d20696e636f72726563742060408201527f6f776e6572000000000000000000000000000000000000000000000000000000606082015260800190565b7f515200000000000000000000000000000000000000000000000000000000000081526000845161521381600285016020890161436c565b80830190507f5f000000000000000000000000000000000000000000000000000000000000008060028301528551615252816003850160208a0161436c565b6003920191820152835161526d81600484016020880161436c565b0160040195945050505050565b60208082526032908201527f4552433732313a207472616e7366657220746f206e6f6e20455243373231526560408201527f63656976657220696d706c656d656e7465720000000000000000000000000000606082015260800190565b6000600160a060020a03808716835280861660208401525083604083015260806060830152614fd26080830184614390565b60006020828403121561531b57600080fd5b81516143658161433256fea26469706673582212201f857448b4c54232c3bf7dfe729e852673fefce5527a2c96820d34136519582764736f6c63430008130033",
  "immutableReferences": {},
  "source": "// SPDX-License-Identifier: MIT\r\npragma solidity ^0.8.19;\r\n\r\nimport \"@openzeppelin/contracts/token/ERC721/ERC721.sol\";\r\nimport \"@openzeppelin/contracts/access/Ownable.sol\";\r\nimport \"@openzeppelin/contracts/security/ReentrancyGuard.sol\";\r\nimport \"@openzeppelin/contracts/utils/Counters.sol\";\r\n\r\ncontract VaccinationRegistry is ERC721, Ownable, ReentrancyGuard {\r\n    using Counters for Counters.Counter;\r\n    \r\n    Counters.Counter private _tokenIds;\r\n    \r\n    struct Child {\r\n        string name;\r\n        uint256 dateOfBirth;\r\n        string parentName;\r\n        string contactInfo;\r\n        address parentAddress;\r\n        address registeredByHospital;\r\n        string hospitalName;\r\n        bool isRegistered;\r\n        uint256 registrationDate;\r\n    }\r\n    \r\n    struct VaccinationRecord {\r\n        string vaccineName;\r\n        uint256 dateAdministered;\r\n        string hospitalName;\r\n        address administeredBy;\r\n        string batchNumber;\r\n        uint256 nextDueDate;\r\n        bool isVerified;\r\n        string ipfsHash;\r\n        string qrCodeHash; // For QR code generation\r\n    }\r\n    \r\n    struct Hospital {\r\n        string name;\r\n        string licenseNumber;\r\n        string contactInfo;\r\n        bool isAuthorized;\r\n        uint256 registrationDate;\r\n    }\r\n    \r\n    mapping(uint256 => Child) public children;\r\n    mapping(uint256 => VaccinationRecord[]) public vaccinationHistory;\r\n    mapping(address => Hospital) public hospitals;\r\n    mapping(address => bool) public authorizedHospitals;\r\n    mapping(uint256 => string) public tokenURIs;\r\n    mapping(address => uint256[]) public parentToChildren; // Track parent's children\r\n    mapping(uint256 => uint256[]) public vaccinationReminders; // Token ID to due dates\r\n    \r\n    event ChildRegistered(uint256 indexed tokenId, string name, address indexed parent, address indexed hospital);\r\n    event VaccinationRecorded(uint256 indexed tokenId, string vaccineName, uint256 dateAdministered, string qrCodeHash);\r\n    event HospitalRegistered(address indexed hospital, string name);\r\n    event HospitalAuthorized(address indexed hospital, bool authorized);\r\n    event ReminderTriggered(uint256 indexed tokenId, string vaccineName, uint256 dueDate);\r\n    event QRCodeGenerated(uint256 indexed tokenId, uint256 vaccinationIndex, string qrCodeHash);\r\n    \r\n    modifier onlyAuthorizedHospital() {\r\n        require(authorizedHospitals[msg.sender], \"Not authorized hospital\");\r\n        _;\r\n    }\r\n    \r\n    modifier onlyTokenOwner(uint256 tokenId) {\r\n        require(ownerOf(tokenId) == msg.sender, \"Not token owner\");\r\n        _;\r\n    }\r\n    \r\n    modifier onlyParentOrHospital(uint256 tokenId) {\r\n        require(\r\n            ownerOf(tokenId) == msg.sender || \r\n            children[tokenId].registeredByHospital == msg.sender,\r\n            \"Not authorized\"\r\n        );\r\n        _;\r\n    }\r\n    \r\n    constructor() ERC721(\"VaccinationNFT\", \"VNFT\") {}\r\n    \r\n    // Hospital registers themselves first\r\n    function registerHospital(\r\n        string memory _name,\r\n        string memory _licenseNumber,\r\n        string memory _contactInfo\r\n    ) public {\r\n        require(!hospitals[msg.sender].isAuthorized, \"Hospital already registered\");\r\n        \r\n        hospitals[msg.sender] = Hospital({\r\n            name: _name,\r\n            licenseNumber: _licenseNumber,\r\n            contactInfo: _contactInfo,\r\n            isAuthorized: false, // Needs owner approval\r\n            registrationDate: block.timestamp\r\n        });\r\n        \r\n        emit HospitalRegistered(msg.sender, _name);\r\n    }\r\n    \r\n    // MAIN CHANGE: Only hospitals can register children, NFT goes to parent\r\n    function registerChild(\r\n        string memory _name,\r\n        uint256 _dateOfBirth,\r\n        string memory _parentName,\r\n        string memory _contactInfo,\r\n        address _parentAddress,\r\n        string memory _tokenURI\r\n    ) public onlyAuthorizedHospital returns (uint256) {\r\n        require(_parentAddress != address(0), \"Invalid parent address\");\r\n        \r\n        _tokenIds.increment();\r\n        uint256 newTokenId = _tokenIds.current();\r\n        \r\n        // Mint NFT to parent address (not hospital)\r\n        _mint(_parentAddress, newTokenId);\r\n        \r\n        children[newTokenId] = Child({\r\n            name: _name,\r\n            dateOfBirth: _dateOfBirth,\r\n            parentName: _parentName,\r\n            contactInfo: _contactInfo,\r\n            parentAddress: _parentAddress,\r\n            registeredByHospital: msg.sender,\r\n            hospitalName: hospitals[msg.sender].name,\r\n            isRegistered: true,\r\n            registrationDate: block.timestamp\r\n        });\r\n        \r\n        tokenURIs[newTokenId] = _tokenURI;\r\n        parentToChildren[_parentAddress].push(newTokenId);\r\n        \r\n        emit ChildRegistered(newTokenId, _name, _parentAddress, msg.sender);\r\n        return newTokenId;\r\n    }\r\n    \r\n    // Enhanced vaccination recording with QR code generation\r\n    function recordVaccination(\r\n        uint256 _tokenId,\r\n        string memory _vaccineName,\r\n        string memory _batchNumber,\r\n        uint256 _nextDueDate,\r\n        string memory _ipfsHash\r\n    ) public onlyAuthorizedHospital {\r\n        require(_exists(_tokenId), \"Token does not exist\");\r\n        \r\n        // Generate QR code hash (combination of token ID, vaccination, and timestamp)\r\n        string memory qrCodeHash = generateQRCodeHash(_tokenId, _vaccineName, block.timestamp);\r\n        \r\n        VaccinationRecord memory newRecord = VaccinationRecord({\r\n            vaccineName: _vaccineName,\r\n            dateAdministered: block.timestamp,\r\n            hospitalName: hospitals[msg.sender].name,\r\n            administeredBy: msg.sender,\r\n            batchNumber: _batchNumber,\r\n            nextDueDate: _nextDueDate,\r\n            isVerified: true,\r\n            ipfsHash: _ipfsHash,\r\n            qrCodeHash: qrCodeHash\r\n        });\r\n        \r\n        vaccinationHistory[_tokenId].push(newRecord);\r\n        \r\n        // Add reminder if next dose is due\r\n        if (_nextDueDate > block.timestamp) {\r\n            vaccinationReminders[_tokenId].push(_nextDueDate);\r\n            emit ReminderTriggered(_tokenId, _vaccineName, _nextDueDate);\r\n        }\r\n        \r\n        emit VaccinationRecorded(_tokenId, _vaccineName, block.timestamp, qrCodeHash);\r\n        emit QRCodeGenerated(_tokenId, vaccinationHistory[_tokenId].length - 1, qrCodeHash);\r\n    }\r\n    \r\n    // Generate unique QR code hash\r\n    function generateQRCodeHash(uint256 _tokenId, string memory _vaccineName, uint256 _timestamp) \r\n        internal pure returns (string memory) {\r\n        return string(abi.encodePacked(\r\n            \"QR\",\r\n            Strings.toString(_tokenId),\r\n            \"_\",\r\n            _vaccineName,\r\n            \"_\",\r\n            Strings.toString(_timestamp)\r\n        ));\r\n    }\r\n    \r\n    // Get all children for a parent\r\n    function getParentChildren(address _parent) public view returns (uint256[] memory) {\r\n        return parentToChildren[_parent];\r\n    }\r\n    \r\n    // Get vaccination reminders for a child\r\n    function getVaccinationReminders(uint256 _tokenId) public view returns (uint256[] memory) {\r\n        require(_exists(_tokenId), \"Token does not exist\");\r\n        return vaccinationReminders[_tokenId];\r\n    }\r\n    \r\n    // Get upcoming vaccinations (within next 30 days)\r\n    function getUpcomingVaccinations(uint256 _tokenId) public view returns (\r\n        string[] memory vaccineNames,\r\n        uint256[] memory dueDates\r\n    ) {\r\n        require(_exists(_tokenId), \"Token does not exist\");\r\n        \r\n        uint256[] memory reminders = vaccinationReminders[_tokenId];\r\n        uint256 upcomingCount = 0;\r\n        \r\n        // Count upcoming vaccinations\r\n        for (uint i = 0; i < reminders.length; i++) {\r\n            if (reminders[i] > block.timestamp && reminders[i] <= block.timestamp + 30 days) {\r\n                upcomingCount++;\r\n            }\r\n        }\r\n        \r\n        vaccineNames = new string[](upcomingCount);\r\n        dueDates = new uint256[](upcomingCount);\r\n        \r\n        uint256 currentIndex = 0;\r\n        VaccinationRecord[] memory records = vaccinationHistory[_tokenId];\r\n        \r\n        for (uint i = 0; i < records.length; i++) {\r\n            if (records[i].nextDueDate > block.timestamp && \r\n                records[i].nextDueDate <= block.timestamp + 30 days) {\r\n                vaccineNames[currentIndex] = records[i].vaccineName;\r\n                dueDates[currentIndex] = records[i].nextDueDate;\r\n                currentIndex++;\r\n            }\r\n        }\r\n    }\r\n    \r\n    // Enhanced verification data with QR support\r\n    function generateVerificationQR(uint256 _tokenId) public view returns (\r\n        string memory qrData,\r\n        string memory childName,\r\n        uint256 totalVaccinations,\r\n        bool isUpToDate\r\n    ) {\r\n        require(_exists(_tokenId), \"Token does not exist\");\r\n        \r\n        Child memory child = children[_tokenId];\r\n        VaccinationRecord[] memory records = vaccinationHistory[_tokenId];\r\n        \r\n        childName = child.name;\r\n        totalVaccinations = records.length;\r\n        \r\n        uint256 ageInDays = (block.timestamp - child.dateOfBirth) / 86400;\r\n        uint256 expectedVaccinations = getExpectedVaccinationCount(ageInDays);\r\n        isUpToDate = totalVaccinations >= expectedVaccinations;\r\n        \r\n        // Generate QR data with verification info\r\n        qrData = string(abi.encodePacked(\r\n            \"CHILD_ID:\", Strings.toString(_tokenId),\r\n            \"|NAME:\", childName,\r\n            \"|VACCINES:\", Strings.toString(totalVaccinations),\r\n            \"|STATUS:\", isUpToDate ? \"UP_TO_DATE\" : \"PENDING\",\r\n            \"|VERIFIED:\", Strings.toString(block.timestamp)\r\n        ));\r\n    }\r\n    \r\n    // Hospital authorization (only owner can authorize)\r\n    function setHospitalAuthorization(address _hospital, bool _authorized) public onlyOwner {\r\n        require(hospitals[_hospital].registrationDate > 0, \"Hospital not registered\");\r\n        authorizedHospitals[_hospital] = _authorized;\r\n        hospitals[_hospital].isAuthorized = _authorized;\r\n        emit HospitalAuthorized(_hospital, _authorized);\r\n    }\r\n    \r\n    // Get hospital info\r\n    function getHospitalInfo(address _hospital) public view returns (Hospital memory) {\r\n        return hospitals[_hospital];\r\n    }\r\n    \r\n    function getChildInfo(uint256 _tokenId) public view returns (Child memory) {\r\n        require(_exists(_tokenId), \"Token does not exist\");\r\n        return children[_tokenId];\r\n    }\r\n    \r\n    function getVaccinationHistory(uint256 _tokenId) public view returns (VaccinationRecord[] memory) {\r\n        require(_exists(_tokenId), \"Token does not exist\");\r\n        return vaccinationHistory[_tokenId];\r\n    }\r\n    \r\n    function getVaccinationCount(uint256 _tokenId) public view returns (uint256) {\r\n        require(_exists(_tokenId), \"Token does not exist\");\r\n        return vaccinationHistory[_tokenId].length;\r\n    }\r\n    \r\n    function hasVaccine(uint256 _tokenId, string memory _vaccineName) public view returns (bool) {\r\n        require(_exists(_tokenId), \"Token does not exist\");\r\n        VaccinationRecord[] memory records = vaccinationHistory[_tokenId];\r\n        \r\n        for (uint i = 0; i < records.length; i++) {\r\n            if (keccak256(bytes(records[i].vaccineName)) == keccak256(bytes(_vaccineName))) {\r\n                return true;\r\n            }\r\n        }\r\n        return false;\r\n    }\r\n    \r\n    function tokenURI(uint256 tokenId) public view override returns (string memory) {\r\n        require(_exists(tokenId), \"Token does not exist\");\r\n        return tokenURIs[tokenId];\r\n    }\r\n    \r\n    // Prevent transfers (soulbound)\r\n    function _beforeTokenTransfer(\r\n        address from,\r\n        address to,\r\n        uint256 tokenId,\r\n        uint256 batchSize\r\n    ) internal override {\r\n        require(from == address(0) || to == address(0), \"Soulbound: Transfer not allowed\");\r\n        super._beforeTokenTransfer(from, to, tokenId, batchSize);\r\n    }\r\n    \r\n    function getExpectedVaccinationCount(uint256 ageInDays) private pure returns (uint256) {\r\n        if (ageInDays < 42) return 3;      // 0-6 weeks\r\n        if (ageInDays < 84) return 6;      // 6-12 weeks  \r\n        if (ageInDays < 126) return 9;     // 12-18 weeks\r\n        if (ageInDays < 365) return 12;    // 18 weeks - 1 year\r\n        if (ageInDays < 730) return 15;    // 1-2 years\r\n        return 18;                         // 2+ years\r\n    }\r\n    \r\n    // Allow parents to update their contact info\r\n    function updateChildInfo(\r\n        uint256 _tokenId,\r\n        string memory _contactInfo\r\n    ) public onlyTokenOwner(_tokenId) {\r\n        children[_tokenId].contactInfo = _contactInfo;\r\n    }\r\n}",
  "sourcePath": "C:\\Users\\NEHA SAI PRIYA\\Downloads\\Covid-Vaccine-Verification-Blockchain-main\\Covid-Vaccine-Verification-Blockchain-main\\blockchain\\contracts\\VaccinationRegistry.sol",
  "compiler": {
    "name": "solc",
    "version": "0.8.19+commit.7dd6d404.Emscripten.clang"
  },
  "schemaVersion": "3.4.16",
  "updatedAt": "2025-05-27T10:13:15.322Z",
  "devdoc": {
    "events": {
      "Approval(address,address,uint256)": {
        "details": "Emitted when `owner` enables `approved` to manage the `tokenId` token."
      },
      "ApprovalForAll(address,address,bool)": {
        "details": "Emitted when `owner` enables or disables (`approved`) `operator` to manage all of its assets."
      },
      "Transfer(address,address,uint256)": {
        "details": "Emitted when `tokenId` token is transferred from `from` to `to`."
      }
    },
    "kind": "dev",
    "methods": {
      "approve(address,uint256)": {
        "details": "See {IERC721-approve}."
      },
      "balanceOf(address)": {
        "details": "See {IERC721-balanceOf}."
      },
      "getApproved(uint256)": {
        "details": "See {IERC721-getApproved}."
      },
      "isApprovedForAll(address,address)": {
        "details": "See {IERC721-isApprovedForAll}."
      },
      "name()": {
        "details": "See {IERC721Metadata-name}."
      },
      "owner()": {
        "details": "Returns the address of the current owner."
      },
      "ownerOf(uint256)": {
        "details": "See {IERC721-ownerOf}."
      },
      "renounceOwnership()": {
        "details": "Leaves the contract without owner. It will not be possible to call `onlyOwner` functions. Can only be called by the current owner. NOTE: Renouncing ownership will leave the contract without an owner, thereby disabling any functionality that is only available to the owner."
      },
      "safeTransferFrom(address,address,uint256)": {
        "details": "See {IERC721-safeTransferFrom}."
      },
      "safeTransferFrom(address,address,uint256,bytes)": {
        "details": "See {IERC721-safeTransferFrom}."
      },
      "setApprovalForAll(address,bool)": {
        "details": "See {IERC721-setApprovalForAll}."
      },
      "supportsInterface(bytes4)": {
        "details": "See {IERC165-supportsInterface}."
      },
      "symbol()": {
        "details": "See {IERC721Metadata-symbol}."
      },
      "tokenURI(uint256)": {
        "details": "See {IERC721Metadata-tokenURI}."
      },
      "transferFrom(address,address,uint256)": {
        "details": "See {IERC721-transferFrom}."
      },
      "transferOwnership(address)": {
        "details": "Transfers ownership of the contract to a new account (`newOwner`). Can only be called by the current owner."
      }
    },
    "version": 1
  },
  "userdoc": {
    "kind": "user",
    "methods": {},
    "version": 1
  }
}